:020000040800F2
:1000000000500020813A0008C93A0008C93A0008A7
:10001000C93A0008C93A0008C93A000800000000BF
:10002000000000000000000000000000C93A0008C5
:10003000C93A000800000000C93A0008D539000894
:10004000C93A0008C93A0008C93A0008C93A000884
:10005000C93A0008C93A0008C93A0008C93A000874
:10006000C93A0008C93A0008C93A0008C93A000864
:10007000E5390008F1390008C93A0008C93A000812
:10008000FD390008093A0008C93A0008C93A0008D1
:10009000C93A0008C93A0008C93A0008C93A000834
:1000A000C93A0008C93A0008C93A0008C93A000824
:1000B000C93A0008C93A0008C93A0008C93A000814
:1000C000C93A0008C93A0008C93A0008C93A000804
:1000D000C93A0008C93A0008153A0008213A000850
:1000E0002D3A0008C93A0008C93A0008000000008B
:1000F0000000000000000000000000000000000000
:0C01000000000000000000005FF808F1A3
:1001100010B5054C237833B9044B13B10448AFF341
:1001200000800123237010BD780000200000000033
:10013000E047000808B5034B1BB103490348AFF380
:10014000008008BD000000007C000020E04700089F
:1001500010F8012B11F8013B012A28BF9A42F7D071
:10016000D01A704781F0004102E000BF83F00043E5
:1001700030B54FEA41044FEA430594EA050F08BF42
:1001800090EA020F1FBF54EA000C55EA020C7FEA06
:10019000645C7FEA655C00F0E2804FEA5454D4EB83
:1001A0005555B8BF6D420CDD2C4480EA020281EA4D
:1001B000030382EA000083EA010180EA020281EA85
:1001C0000303362D88BF30BD11F0004F4FEA0131D7
:1001D0004FF4801C4CEA113102D0404261EB4101E6
:1001E00013F0004F4FEA03334CEA133302D052426C
:1001F00063EB430394EA050F00F0A780A4F1010428
:10020000D5F1200E0DDB02FA0EFC22FA05F2801861
:1002100041F1000103FA0EF2801843FA05F3594147
:100220000EE0A5F120050EF1200E012A03FA0EFCC6
:1002300028BF4CF0020C43FA05F3C01851EBE371F0
:1002400001F0004507D54FF0000EDCF1000C7EEB0D
:1002500000006EEB0101B1F5801F1BD3B1F5001F4B
:100260000CD349085FEA30004FEA3C0C04F101046A
:100270004FEA445212F5800F80F09A80BCF1004F93
:1002800008BF5FEA500C50F1000041EB045141EA15
:10029000050130BD5FEA4C0C404141EB010111F416
:1002A000801FA4F10104E9D191F0000F04BF0146C1
:1002B0000020B1FA81F308BF2033A3F10B03B3F19F
:1002C00020020CDA0C3208DD02F1140CC2F10C022F
:1002D00001FA0CF021FA02F10CE002F11402D8BF8D
:1002E000C2F1200C01FA02F120FA0CFCDCBF41EA59
:1002F0000C019040E41AA2BF01EB0451294330BD28
:100300006FEA04041F3C1CDA0C340EDC04F1140404
:10031000C4F1200220FA04F001FA02F340EA0300DB
:1003200021FA04F345EA030130BDC4F10C04C4F121
:10033000200220FA02F001FA04F340EA0300294601
:1003400030BD21FA04F0294630BD94F0000F83F44B
:10035000801306BF81F480110134013D4EE77FEA2E
:10036000645C18BF7FEA655C29D094EA050F08BF7A
:1003700090EA020F05D054EA000C04BF194610465B
:1003800030BD91EA030F1EBF0021002030BD5FEA9F
:10039000545C05D14000494128BF41F0004130BDC7
:1003A00014F580043CBF01F5801130BD01F000451B
:1003B00045F0FE4141F470014FF0000030BD7FEA8E
:1003C000645C1ABF194610467FEA655C1CBF0B4689
:1003D000024650EA013406BF52EA033591EA030FA0
:1003E00041F4002130BD00BF90F0000F04BF002198
:1003F000704730B54FF4806404F132044FF00005CB
:100400004FF0000150E700BF90F0000F04BF002143
:10041000704730B54FF4806404F1320410F00045A9
:1004200048BF40424FF000013EE700BF42004FEAA4
:10043000E2014FEA31014FEA02701FBF12F07F4321
:1004400093F07F4F81F06051704792F0000F14BF1E
:1004500093F07F4F704730B54FF4607401F0004562
:1004600021F0004120E700BF50EA010208BF7047B9
:1004700030B54FF000050AE050EA010208BF7047AE
:1004800030B511F0004502D5404261EB41014FF417
:10049000806404F132045FEA915C3FF4DCAE4FF01B
:1004A00003025FEADC0C18BF03325FEADC0C18BF02
:1004B000033202EBDC02C2F1200300FA03FC20FA53
:1004C00002F001FA03FE40EA0E0021FA02F11444A0
:1004D000C1E600BF70B54FF0FF0C4CF4E06C1CEAB5
:1004E00011541DBF1CEA135594EA0C0F95EA0C0F2A
:1004F00000F0DEF82C4481EA030621EA4C5123EA9D
:100500004C5350EA013518BF52EA033541F48011CB
:1005100043F4801338D0A0FB02CE4FF00005E1FB7E
:1005200002E506F00042E0FB03E54FF00006E1FBC8
:1005300003569CF0000F18BF4EF0010EA4F1FF040B
:10054000B6F5007F64F5407404D25FEA4E0E6D414B
:1005500046EB060642EAC62141EA55514FEAC5205C
:1005600040EA5E504FEACE2EB4F1FD0C88BFBCF5D8
:10057000E06F1ED8BEF1004F08BF5FEA500E50F189
:10058000000041EB045170BD06F0004646EA01014F
:1005900040EA020081EA0301B4EB5C04C2BFD4EB81
:1005A0000C0541EA045170BD41F480114FF0000E7A
:1005B000013C00F3AB8014F1360FDEBF002001F0E8
:1005C000004170BDC4F10004203C35DA0C341BDC62
:1005D00004F11404C4F1200500FA05F320FA04F034
:1005E00001FA05F240EA020001F0004221F0004168
:1005F00010EBD37021FA04F642EB06015EEA430EDB
:1006000008BF20EAD37070BDC4F10C04C4F120050A
:1006100000FA04F320FA05F001FA04F240EA0200BD
:1006200001F0004110EBD37041F100015EEA430E8E
:1006300008BF20EAD37070BDC4F1200500FA05F2AE
:100640004EEA020E20FA04F301FA05F243EA02032D
:1006500021FA04F001F0004121FA04F220EA02003C
:1006600000EBD3705EEA430E08BF20EAD37070BD82
:1006700094F0000F0FD101F00046400041EB010162
:1006800011F4801F08BF013CF7D041EA060195F044
:10069000000F18BF704703F00046520043EB0303FE
:1006A00013F4801F08BF013DF7D043EA06037047EB
:1006B00094EA0C0F0CEA135518BF95EA0C0F0CD0F6
:1006C00050EA410618BF52EA4306D1D181EA03013C
:1006D00001F000414FF0000070BD50EA410606BF36
:1006E0001046194652EA430619D094EA0C0F02D17B
:1006F00050EA013613D195EA0C0F05D152EA0336C0
:100700001CBF104619460AD181EA030101F00041DD
:1007100041F0FE4141F470014FF0000070BD41F026
:10072000FE4141F4780170BD70B54FF0FF0C4CF400
:10073000E06C1CEA11541DBF1CEA135594EA0C0F1F
:1007400095EA0C0F00F0A7F8A4EB050481EA030E6C
:1007500052EA03354FEA013100F088804FEA033353
:100760004FF0805545EA131343EA12634FEA022221
:1007700045EA111545EA10654FEA00260EF00041E2
:100780009D4208BF964244F1FD0404F5407402D234
:100790005B084FEA3202B61A65EB03055B084FEAC5
:1007A00032024FF480104FF4002CB6EB020E75EBC2
:1007B000030E22BFB61A754640EA0C005B084FEAEA
:1007C0003202B6EB020E75EB030E22BFB61A754667
:1007D00040EA5C005B084FEA3202B6EB020E75EBB2
:1007E000030E22BFB61A754640EA9C005B084FEA2A
:1007F0003202B6EB020E75EB030E22BFB61A754637
:1008000040EADC0055EA060E18D04FEA051545EA25
:1008100016754FEA06164FEAC30343EA52734FEACE
:10082000C2025FEA1C1CC0D111F4801F0BD141EA47
:1008300000014FF000004FF0004CB6E711F4801FAC
:1008400004BF01430020B4F1FD0C88BFBCF5E06F8C
:100850003FF6AFAEB5EB030C04BFB6EB020C5FEA9C
:10086000500C50F1000041EB045170BD0EF0004EF1
:100870004EEA113114EB5C04C2BFD4EB0C0541EA23
:10088000045170BD41F480114FF0000E013C90E620
:1008900045EA060E8DE60CEA135594EA0C0F08BFE4
:1008A00095EA0C0F3FF43BAF94EA0C0F0AD150EAE3
:1008B00001347FF434AF95EA0C0F7FF425AF104676
:1008C00019462CE795EA0C0F06D152EA03353FF49E
:1008D000FDAE1046194622E750EA410618BF52EA1B
:1008E00043067FF4C5AE50EA41047FF40DAF52EAEF
:1008F00043057FF4EBAE12E74A0011D212F5001265
:1009000011D20DD56FF47873B3EB62520ED44FEA67
:10091000C12343F0004343EA505323FA02F07047E7
:100920004FF00000704750EA013002D14FF0FF3025
:1009300070474FF00000704703685A004CBF43F007
:10094000004323F000431844704700BF61B32DE912
:10095000F84F01F1FF3A90460646D146002707EBD3
:10096000090404EBD4746410E50071190846FFF71C
:10097000E3FFA245834605F10800304409D0FFF7A4
:10098000DBFFC34500F1FF3005D8404509D2671CA5
:10099000E5E7C34505D9A74202D004F1FF39DEE7F8
:1009A00000210846BDE8F88F08467047012807D0A7
:1009B000022807D0044B00280CBF184600207047BF
:1009C0000248704702487047BD100008C110000877
:1009D000C510000830B5254B83B004468D1E73B397
:1009E00001A92846AFF3008018B301992A46FFF702
:1009F000ADFF0146E8B1FFF79FFF4B68A064012BF4
:100A000011D0002B22DB081DFFF796FF0023E064C6
:100A100023650368002B1EDBFFF78EFF0023206198
:100A2000184603B030BD052300221846226103B0EA
:100A300030BD092300221846226103B030BD0C4BA3
:100A40000C491846C91AC9100191CFE70123081DA6
:100A5000E0642365DDE7C3F30360FFF7A7FF002829
:100A6000206114BF00230923DAE700BF0000000063
:100A7000F04A0008504C0008036810B5DA07044635
:100A800006D49B0700F1480009D500F057FC236805
:100A9000590709D51A070ED5DB0613D510BD00F08E
:100AA00045FC23685907F5D404F1D00000F04EFC52
:100AB00023681A07F0D404F5A87000F04FFC2368EF
:100AC000DB06EBD404F5E870BDE8104000F08ABC0A
:100AD000036803B103441846704700BF09207047FC
:100AE000704700BF70B504460D4608E02A6C2369C4
:100AF000626121462A4601209847082808D1296CBE
:100B00002046FFF767FF06460028EFD003F000FD00
:100B10000728FBD13046296CFFF7E2FF281D00F0C3
:100B2000F9FB00BF2DE9F04705460027ADF5727DC2
:100B300003AC0E1D92460FCE0FC40FCE0FC40FCEC6
:100B40000FC496E80F00D5F80C80D5F8189084E80B
:100B50000F0002AC2846216C2760FFF73BFFBAF17B
:100B6000000F074614BF0A2609267FB1A36B46F083
:100B700010018DE810022A46636401202B46C0470D
:100B800078BB38460DF5727DBDE8F087236C4FF4D5
:100B9000F0726B6121467AA803F0F6FD2B697AAA00
:100BA000294630469847889B82468DE81002314698
:100BB00063642A462B460120C04790B94FF4F07277
:100BC0007AA9204603F0E0FDBAF1080F06D1216CA6
:100BD0002846FFF7FFFE09260746C6E7BAF1070FCA
:100BE00005D0092738460DF5727DBDE8F0873846F7
:100BF000216CFFF775FF03A800F08CFB406C704779
:100C0000F0B54FF0FF3ECB6BF9B00B640E1D01AD9C
:100C10000F4604460FCE0FC50FCE0FC50FCE0FC522
:100C200096E80F0085E80F00CDF800E006E02369A4
:100C30006A46214698470828054608D1109920465B
:100C4000FFF7C8FE0028F2D0092079B0F0BD684651
:100C5000FFF712FF062DF7D139462046FFF742FF76
:100C600030B4DD6BC160826119461D64002230BC66
:100C700058E700BF70B54369C6680B6426B101220E
:100C8000FFF750FF03F044FC03690A4604460D4693
:100C9000014602209847072807D0082803D1294693
:100CA0002046FFF71FFF03F033FC3046296CFFF7A7
:100CB00017FF281D00F02EFBC2682AB110B4CC6BC0
:100CC00000220C6410BC2DE79AE700BF704700BFFC
:100CD000836813B1014601201847704700B5042905
:100CE00007D8DFE801F00309060909000BB90F2A4C
:100CF00005D902205DF804FB01205DF804FB00EB40
:100D0000820252681846019B1A605DF804FB00BF1E
:100D1000002310B584B003AC0A4600941946FFF7CF
:100D2000DDFF039804B010BD00B5042907D8DFE843
:100D300001F00309060909000BB90F2A05D90220A1
:100D40005DF804FB01205DF804FB019900EB8202D1
:100D50000968184651605DF804FB00BF002310B518
:100D600084B004AC44F8042D00940A461946FFF7F9
:100D7000DBFF04B010BD00BFF0B54FF0FF3ED36BFA
:100D8000ADF50F7D1364151D17AC07460E460FCD4C
:100D90000FC40FCD0FC40FCD0FC495E80F0084E82A
:100DA0000F00CDF858E012E00C2116A86A46FFF7B4
:100DB000D5FF314616A8B84778B9049B16AA6946EC
:100DC000082098470528044608D0092805D0269908
:100DD0006846FFF7FFFD0028E6D0092416A8FFF7B4
:100DE0004BFE20460DF50F7DF0BD00BF2DE9F04F05
:100DF000CC6C914622688BB004340D46079208945F
:100E000000F0030B1E46002B60D103231202079251
:100E10008DF825608DF824302B6DBBF1020F08BFD3
:100E2000AC6B13F0010340D1019300F0080303936E
:100E3000D4F80080B8F1000F39D0022E43D0B4F8B6
:100E4000008067880434AB6C27F0010A0F21484604
:100E50009A44FFF75DFF824533D828F001039A4496
:100E600050452CBF002001207F0007F0020708F04A
:100E7000010847EA0807012F3ED035D3022F1CD1C5
:100E8000236823F000420292BBF1000F76D128B113
:100E9000039900297ED0002A00F0A680002B77DB82
:100EA000029B013304EB8304C2E700230193022E6B
:100EB0003EDDFFF713FE002840D009200BB0BDE84F
:100EC000F08F0020D0E767680834BCE7022BA3DC72
:100ED0000221130C8DF825301204DBB204EB8304DD
:100EE00007928DF8241097E7BBF1000F02D000287D
:100EF00040F0BD8004349BE7BBF1000F25D1A8B1C1
:100F000094E80C00991C4FEAD272D6D005F1580132
:100F10000133069100F0A380201DFFF7D9FD06AB39
:100F20000146284602F008FE002877D108347FE702
:100F300007A9484600F0F0FA0028BED1019B002B1B
:100F40005CD108200BB0BDE8F08F0D2148462F6A18
:100F5000FFF7DEFE8742E9D1AB6A9C42E6D120462C
:100F6000FFF7EAFC0F2102464846FFF7F7FE484626
:100F70002A460021FFF7F2FE07209FE70D21484691
:100F80002F6AFFF7C5FE874258D02368002B87DA07
:100F9000043485E7029B3BB305F15803271DCDF8C8
:100FA00010B0DDF80C80A346DDF808A01C460596BD
:100FB00002E0B245B04616D038460694FFF788FDE9
:100FC00006AB01460022284602F0B6FD08F10106F4
:100FD00004370028EDD0029B5C464345DDF810B095
:100FE000059ED2D100E05C4648460D21FFF790FEF9
:100FF000069B2862AC626B6206205FE70F214846C1
:10100000FFF786FE0E2102464846FFF7A7FE484638
:10101000294A0F21FFF7A2FE07204FE707460D21BF
:101020004846FFF775FE022F28621DD12B46069A0F
:1010300043F82C2F6B62AC6206203FE7AB6A9C4200
:10104000A3D1042200270299A318A962EF622A63A0
:101050006B632368BB421DDB0123019320E74846F5
:101060000D21FFF755FE2862069B6B62E3E72046E1
:10107000FFF762FC04340646AC63284602F0BAFD72
:1010800000283FF41AAF484632460F21FFF766FEAC
:10109000072013E70846013004EB8000FFF74CFC03
:1010A0000F2102464846FFF759FE48462A46394670
:1010B000FFF754FE072001E707440008002395E6E8
:1010C000012393E6022391E6F0B50446C5B0042956
:1010D0000DD8DFE801F055030C310F00012B4FEA6A
:1010E000124695B264D17219102A40F29D800220F6
:1010F00045B0F0BD002BFAD1102AF8D82368D806E5
:1011000000F1C88022AE30460192012500F074F94A
:101110000023A06B019A05FA03F1114203D0016884
:10112000043046F823100133042BF4D1A063304679
:1011300000F058F90020DBE7032BD8D1150C97B24B
:10114000EB19102BD3D823681E0700F1B78022AE0D
:10115000304600F025F9ED00A06B5FB1043D034679
:10116000711900EBC70053F8042B834241F8042F98
:10117000F9D11846A063304600F0F0F80020B7E738
:10118000002BB4D10127A56B96B2201D07FA03F1FD
:10119000314203F1010302D0296804350160102BAC
:1011A00000F10400F2D112F400503BD1A5639FE797
:1011B000052B9CD17719202F99D80F2E66D92F4651
:1011C000002D3AD12A460027002AA06B72DD00EBE1
:1011D000C202014644A800EBC6008C3851F8045BFB
:1011E000914240F8045FF9D1084697B1102E32467B
:1011F00038BF102244A901EBC202A2F5C4727900E3
:10120000043A00EB810150F8045B884242F8045F25
:10121000F9D1012B48D00F2EA16333D917B102A801
:1012200000F094F8002063E70F2E3FF660AF002730
:101230002268D10717D4002F60D02268510745D407
:10124000012B4DD00F2E06D822A8019300F07AF87A
:10125000019B002FB6D002A8019300F07BF8019B00
:10126000C6F11002B0E722F00101052B21600193C5
:1012700020463BD022F0030240F8482B00F05AF8F9
:10128000019BD8E722A800F059F8C7E7102FCED964
:10129000103FCDE723F01003236004F5E8700192BE
:1012A00000F0AAF8019A2DE70431A16322A800F00A
:1012B0003DF8B7E7002F99D10146AAE723F00803CC
:1012C000236004F5A87000F06BF840E7204622F098
:1012D000040240F8D02B019300F03CF8019BAFE7EB
:1012E00022A8019300F026F8019BB9E741F0020122
:1012F00040F8481B00F026F8019B9CE7012B03D027
:101300000F2E3FF65FAF9FE722A8019300F012F87F
:10131000019B57E700F1340191E838009C46A6464E
:101320004CF8045D90E8FF0FE54600BD90EC210B02
:10133000704700BF80EC210B704700BF90EC200B82
:10134000704700BF80EC200B704700BFD0EC200B33
:10135000704700BFC0EC200B704700BFF0EC0201EB
:10136000F0EC0211F0EC0221F0EC0231F0EC024161
:10137000F0EC0251F0EC0261F0EC0271F0EC028151
:10138000F0EC0291F0EC02A1F0EC02B1F0EC02C141
:10139000F0EC02D1F0EC02E1F0EC02F1704700BF9A
:1013A000E0EC0201E0EC0211E0EC0221E0EC0231A1
:1013B000E0EC0241E0EC0251E0EC0261E0EC027191
:1013C000E0EC0281E0EC0291E0EC02A1E0EC02B181
:1013D000E0EC02C1E0EC02D1E0EC02E1E0EC02F171
:1013E000704700BFB0FC0181B0FC0191B0FC01A1CD
:1013F000B0FC01B1704700BFA0FC0181A0FC0191CD
:10140000A0FC01A1A0FC01B1704700BFEC4600B5F3
:101410002DE900502DE9FF1F4FF000032DE90C00CE
:1014200001A9FFF7EDFBDDF840E012B0704700BF07
:10143000EC4600B52DE900502DE9FF1F4FF00003E9
:101440002DE90C0001A9FFF715FCDDF840E012B012
:10145000704700BFEC4600B52DE900502DE9FF1F95
:101460004FF000032DE90C0001A9FFF725FCDDF882
:1014700040E012B0704700BFEC4600B52DE90050C7
:101480002DE9FF1F4FF000032DE90C0001ABFFF722
:10149000E7FBDDF840E012B0704700BFEC4600B556
:1014A0002DE900502DE9FF1F4FF000032DE90C003E
:1014B00001AAFFF761FCDDF840E012B0704700BF01
:1014C000027A1AB9437A43B9B02070470368013AE7
:1014D00002721A020260180E704703214268013B33
:1014E00010B443721368141D01721A024460026042
:1014F00010BC180E704700BF002300B585B003AACA
:10150000009219460C22FFF7E9FB039805B05DF83D
:1015100004FB00BFF0E700BF2DE9F04306460F468D
:101520004FF0000885B03846FFF7CAFFB0280446E0
:1015300023D0050627D400230DF10C091946850098
:101540000D22CDF800903046FFF7C8FBEDB2039BAB
:10155000600605F104054CBF5D1BED1800230D224C
:101560001946CDF8009030460395FFF7DDFB38466D
:10157000FFF7A6FFB0280446DBD1B8F1000F00F05A
:10158000948000201CE000F0F003802B5CD0902BB6
:1015900019D0A02B2CD0B02B3ED0C02B6BD000F09C
:1015A000F803D02B0BD100F00702013242F40022E5
:1015B000052301213046FFF787FD0028B3D009201D
:1015C00005B0BDE8F08300F00D030D2BF7D000232C
:1015D00003AD00F00F02194600953046FFF77EFB81
:1015E0000023009519460D223046FFF79DFB9AE730
:1015F000C3434FF47F6203F007031A41002301073E
:1016000002F47F6248BF42F4804219463046FFF739
:101610005BFD0028D3D186E7B12857D0B22868D027
:10162000B32800F0958000F0FC03B42BC7D0012351
:1016300000F007021A4442F4002219463046FFF730
:1016400043FD0028BBD16EE73846FFF739FF24027F
:101650000443B4F5004FB2D000232401A2B21946CE
:101660003046FFF731FD0028A9D114F4004F18BF10
:101670004FF0010857E7C6287DD0C72800F08680C4
:1016800000F0F803C02B00F09480C82800F09F8081
:10169000C92894D13846FFF713FF020300F00F006A
:1016A00002F470220130024382E703AC43460E226B
:1016B000414600943046FFF711FB00943046434604
:1016C0000F224146FFF730FB404679E73846FFF7E7
:1016D000F7FE00283FF473AF10F0F0037FF46FAF14
:1016E000024619463046FFF7EFFC00287FF467AF4B
:1016F00019E700230DF10C090D221946CDF80090D1
:101700003046FFF7EBFA3846FFF7DAFE02064FF0F5
:1017100002040CD5039B00F07F00A0400344384630
:101720000393FFF7CDFE030604F10704F2D4002370
:10173000039900F07F02A24001F501718C18CDF8E9
:10174000009019460D2230460394FFF7EDFAEAE6C1
:101750003846FFF7B5FE0123010300F00F0001F446
:101760007021C2180A4330461946FFF7ADFC002825
:101770007FF425AFD7E63846FFF7A2FE010300F05D
:101780000F00032301F47021421CEBE73846FFF7FA
:1017900097FE00283FF413AF10F0F0037FF40FAF73
:1017A000024604213046FFF78FFC00287FF407AF84
:1017B000B9E6032300F00F02013242F42022194659
:1017C0003046FFF781FC00287FF4F9AEABE63846DF
:1017D000FFF776FE00F0F00200F00F031032013345
:1017E00043EA0232E4E600BF30B503240D46C36C81
:1017F00085B05A688DF80C40DC791202083301A9D3
:10180000284601928DF80D400293FFF785FE05B042
:1018100030BD00BF08B5FFF77DFE806C08BD00BF7E
:1018200008B5FFF777FEC06CC37900EB8300083082
:1018300008BD00BF08B502F06BFE00BF08B5FFF79A
:10184000F9FF00BF38B50E4B054618784FF47A7390
:10185000B3FBF0F30B4A1068B0FBF3F000F08CF828
:10186000044658B90F2D09D8024629464FF0FF30DB
:1018700000F042F8044B20461D6038BD012038BD01
:10188000000000200800002004000020074A08B5DE
:101890001368032043F01003136000F01BF80020CE
:1018A000FFF7D0FF01F04AFF002008BD00200240F2
:1018B000034A044B11681B780B441360704700BF48
:1018C0008802002000000020014B1868704700BF0C
:1018D00088020020074A0002D36800F4E06023F485
:1018E000E0631B041B0C43F0BF6343F4003303436A
:1018F000D360704700ED00E0174B30B5DC68C4F3EF
:101900000224C4F10703251D042B28BF0423062D40
:101910004FF0010598BF002405FA03F303F1FF33EC
:1019200088BF033C1940A14005FA04F4013C224061
:10193000002842EA01024FEA0212AFBF00F1604004
:10194000064B00F00F00D2B2A5BFD2B200F5614045
:101950001A5480F8002330BD00ED00E014ED00E0E3
:101960000123420900F01F0003FA00F0014B43F885
:101970002200704700E100E00138B0F1807F0AD218
:10198000F021064B064A586082F8231000200722F7
:1019900098601A6070470120704700BF10E000E0B7
:1019A00000ED00E0044B04281A680CBF42F004026A
:1019B00022F004021A60704710E000E0704708B59A
:1019C000FFF7FCFF08BD000010B550B314220168FA
:1019D000154B84680B44B3FBF2F39B000364134B79
:1019E0000A68C363436822F47F522343C46822F029
:1019F0003002234304692343446923438469234316
:101A0000C469234313430B600122002380F8212083
:101A10008362C36203634363836380F820301846A4
:101A200010BD012010BD00BFF8FFFDBF0000024047
:101A3000F0B590F82040012C35D0012490F82150C9
:101A400080F82040A5424FF000064FF0020428D154
:101A500080F82140046886632668076C26F001063A
:101A60002660C66BBD407560636043680568102BD7
:101A7000C36A0BBFA260A160E160E2604BB1236862
:101A800043F00E0323602B68002043F001032B601A
:101A9000F0BD236823F004032360236843F00A03A6
:101AA000F0E780F820600220F0BD000090F82130BF
:101AB00010B5022B03D004238363012010BD0368FB
:101AC0001A6822F00E021A601A6822F001021A60E7
:101AD000184A93421FD0143293421ED014329342BC
:101AE0001DD0143293421DD0143293421DD01432B3
:101AF00093420CBF4FF480134FF080730E4A0024C2
:101B00005360012380F82130436B80F820407BB183
:101B10009847204610BD0123F0E71023EEE74FF46D
:101B20008073EBE74FF48053E8E74FF48033E5E749
:101B3000184610BD080002400000024070B40425A1
:101B4000C66B026C3468036895402542196832D030
:101B50004D0730D51A6896065EBF1A6822F0040257
:101B60001A603E4A934219D01432934218D014326C
:101B7000934217D01432934217D01432934217D0A5
:101B8000143293420CBF4FF480034FF08063344A09
:101B90005360C36A002B5ED070BC18470423F6E77D
:101BA0004023F4E74FF48063F1E74FF48043EEE71E
:101BB0004FF48023EBE702259540254235D08D0771
:101BC00033D51A68940606D41A6822F00A021A60FD
:101BD000012280F82120214A934219D014329342E5
:101BE00018D01432934217D01432934217D01432C3
:101BF000934217D0143293420CBF4FF400134FF0AE
:101C00000073174A5360002380F82030836AC1E7CD
:101C10000223F6E72023F4E74FF40073F1E74FF4D3
:101C20000053EEE74FF40033EBE7082595402542DB
:101C300011D009070FD5196821F00E011960012391
:101C400003FA02F27260836380F82130002380F887
:101C50002030036B9EE770BC704700BF0800024055
:101C6000000002402DE9F74F00221646654BDFF8D1
:101C7000A4E1DFF8A4C14FF001080C6808FA06F8E7
:101C800008EA0404A0457FD14D68122D00F0AF8012
:101C900000F28880022D00F0A7807CD8002D00F093
:101CA0008E80012D00F09E804FF00F09FF2C93BF16
:101CB000824606F18045083DD0F800B092BFB500DD
:101CC000D0F804B0AD0009FA05F82BEA080802FACA
:101CD00005F588BF00F1040A48EA0505CAF8005076
:101CE000D1F804A01AF0805F4ED0474D464FAD6941
:101CF00026F0030845F00105BD61BD6908F1804883
:101D000005F00105019508F5803806F0030B019DEB
:101D10004FEA8B0BD8F8085009FA0BF925EA0909A4
:101D20003A4DA84268D005F58065A84266D005F511
:101D30008065A84264D005F58065A8420CBF0325E4
:101D4000042505FA0BF545EA0905C8F808501D6891
:101D50001AF4803F14BF2543A5431D605D681AF443
:101D6000003F14BF2543A5435D609D681AF4801FA2
:101D700014BF2543A5439D60DD681AF4001F14BFFE
:101D80002C4325EA0404DC600136102E7FF473AF87
:101D900003B0BDE8F08F032D22D0112D84D1CA6885
:101DA000043281E71A4FBD4209D012D8DFF86C9097
:101DB0004D4504D009F580394D457FF475AF8A68EB
:101DC000C2B1012A0CBFC0F81080C0F814800822EC
:101DD0006AE77545F3D06545F1D0DFF84490EBE74D
:101DE000002261E7CA685FE7CA6808325CE7CA6830
:101DF0000C3259E7042257E70025A2E70125A0E7A6
:101E000002259EE700040140001002400008014046
:101E100000002110000031100000321000001110ED
:101E2000000022100AB1016170470904FBE7C36892
:101E30005940C1607047000008B5044B5969014220
:101E400002D0586101F0E8F908BD00BF000401406C
:101E500003682DE9F341DB07054610D42B689F0783
:101E60005ED42B68190700F195802B685A0700F1A2
:101E7000BF80EA69002A40F02D81002014E0904CD8
:101E8000636803F00C03042B07D0636803F00C03B2
:101E9000082B0CD16368DE0309D523689C03DDD5CC
:101EA0006B68002BDAD1012002B0BDE8F0816B68CD
:101EB000B3F5803F10D1236843F480332360FFF7EC
:101EC00003FD064623689803C8D4FFF7FDFC801B7A
:101ED0006428F7D90320E7E79BB9236823F480330C
:101EE0002360236823F480232360FFF7EDFC06467C
:101EF00023689903B2D5FFF7E7FC801B6428F7D964
:101F0000E8E7B3F5A02F236803D143F480232360CF
:101F1000D1E723F480332360236823F48023CDE7C3
:101F2000674C636813F00C0F07D0636803F00C0371
:101F3000082B10D16368DA030DD423689B0702D500
:101F40002B69012BAFD123686A6923F0F80343EAB8
:101F5000C203236085E72A695A4B6AB101221A60DD
:101F6000FFF7B2FC064623689F07ECD4FFF7ACFCF2
:101F7000801B0228F7D9ADE71A60FFF7A5FC0646DB
:101F8000236898077FF56DAFFFF79EFC801B022842
:101F9000F6D99FE7AA694A4C4B4BDAB101221A6085
:101FA000FFF792FC0646636A9B070DD54FF4FA5281
:101FB000464B1B68B3FBF2F3019300BF019B5A1E13
:101FC0000192002BF9D150E7FFF77EFC801B02281D
:101FD000E9D97FE71A60FFF777FC0646636A9F0737
:101FE0007FF543AFFFF770FC801B0228F6D971E73D
:101FF000334CE369D80024D40127E36943F08053CC
:10200000E361E36903F080530093009B304E336833
:10201000D90518D5EB68012B26D1236A43F00103BB
:102020002362FFF751FC41F288368046236A9B0702
:102030003FD5002F3FF41DAFE36923F08053E361E8
:1020400017E70027E2E7336843F480733360FFF754
:102050003BFC80463368DA05DCD4FFF735FCA0EBA7
:1020600008006428F6D935E7ABB9236A41F288380D
:1020700023F001032362236A23F004032362FFF7A2
:1020800023FC0646236A9807D3D5FFF71DFC801B67
:102090004045F7D91EE7052B236A03D143F004031B
:1020A0002362BAE723F001032362236A23F00403C7
:1020B000B6E7FFF709FCA0EB0800B042B6D909E784
:1020C000001002400000424280044242080000200A
:1020D00000700040224C636803F00C03082B3FF4AF
:1020E000E2AE00231F4E022A33602BD1FFF7ECFB38
:1020F0000746236899011FD42B6AB3F5803F05D1A9
:102100006268A96822F400320A436260696A626800
:102110000B4322F474121343636001233360FFF70F
:10212000D3FB054623689A013FF5A7AEFFF7CCFB2A
:10213000401B0228F6D9CDE6FFF7C6FBC01B0228DC
:10214000D7D9C7E6FFF7C0FB054623689B017FF59B
:1021500094AEFFF7B9FB401B0228F6D9BAE600BFE0
:10216000001002406000424230B5194B87B002AC0B
:1021700003F11005224618685968083303C2AB42C0
:102180001446F7D101238DF80430022311498DF84C
:1021900005304B6803F00C02082A17D1C3F38342C1
:1021A00006A80244DB0312F8102C0CD54B680A4831
:1021B000C3F34043504306AA134413F8143CB0FB46
:1021C000F3F007B030BD05485043FAE70248F8E79E
:1021D000F84700080010024000127A0000093D0094
:1021E0004D4A2DE9F0411368054603F007038B4281
:1021F0000E4628D32A68910732D4D20738D4464AEB
:10220000136803F007039E4273D32A68434C12F00D
:10221000040F79D1130706D563682A6923F4605344
:1022200043EAC2036360FFF79FFF63683C4AC3F35E
:102230000313D35CD8403B4B18600020FFF702FB30
:102240000020BDE8F081136823F007030B431360FF
:10225000136803F007039942CCD00120BDE8F08158
:102260002E49A8684B6823F0F00303434B60C4E792
:102270006A682A4C012A23681CD113F4003FECD071
:10228000636841F2883823F0030313436360FFF768
:102290001BFB6B680746012B14D1636803F00C032A
:1022A000042BACD0FFF710FBC01B4045F5D9032031
:1022B000BDE8F081022A02D113F0007FDFE713F0BE
:1022C000020FDCE7022B0FD1636803F00C03082B2D
:1022D00095D0FFF7F9FAC01B4045F5D9E7E7FFF7BE
:1022E000F3FAC01B4045E2D8636813F00C0FF6D137
:1022F00085E7136823F0070333431360136803F083
:1023000007039E42A9D180E76368E96823F4E0638C
:102310000B4363607EE700BF0020024000100240D4
:102320009B48000808000020014B1868704700BF58
:1023300008000020044B054A5B68C3F30223D35C0A
:10234000034A1068D840704700100240AB480008AC
:1023500008000020044B054A5B68C3F3C223D35C2A
:10236000034A1068D840704700100240AB4800088C
:1023700008000020036A70B523F001030362036ABA
:10238000446882690D6822F073022A438D6823F045
:1023900002032B430A4DA8420BD1CD6823F008035A
:1023A0002B438E694D6924F44074354323F00403B4
:1023B0002C43446082614A684263036270BD00BF7F
:1023C000002C0140036A70B523F480730362036A32
:1023D0004468C2690D6822F073022A438D6823F4B1
:1023E000007343EA05230B4DA8420DD1CD6823F4B9
:1023F000006343EA05238E694D6924F44054354354
:1024000023F4806344EA05144460C2614A68C263ED
:10241000036270BD002C0140036A30B523F4805381
:102420000362036A4468C2690D6822F4E64242EA24
:1024300005228D6823F4005343EA0533064DA84274
:1024400002BF4D6924F4804444EA85144460C261AB
:102450004A680264036230BD002C0140704790F866
:102460003C3070B5012B4FF002031CD0012280F8E4
:102470003D30036880F83C209A6822F47F4222F0C5
:1024800077029A600A68402A79D019D8102A00F099
:1024900093800AD8002A00F08980012380F83D301B
:1024A000002380F83C30184670BD202A00F08A8056
:1024B000302AF2D19A6822F0700242F0370236E0F8
:1024C000702A36D01BD8502A42D0602AE5D11C6A27
:1024D0004D6824F01004CE681C6299691A6A21F4D0
:1024E000704122F0A00242EA051241EA06319961E8
:1024F0001A629A6822F0700242F0670217E0B2F5A1
:10250000805F11D0B2F5005FC7D18A684D689C68C2
:10251000C9682A4324F47F4442EA012222439A6094
:102520009A6842F4804202E09A6822F007029A60B8
:10253000B3E78A684D689C68C9682A4324F47F44DD
:1025400042EA012222439A609A6842F07702EEE75B
:102550004C68CE68196A1D6A21F00A0125F0010550
:102560001D629A69214322F0F00242EA06129A6142
:1025700019629A6822F0700242F05702D7E74C685D
:10258000CE68196A1D6A21F00A0125F001051D6255
:102590009A69214322F0F00242EA06129A61196216
:1025A0009A6822F0700242F04702C0E79A6822F06F
:1025B000700242F00702BAE79A6822F0700242F015
:1025C0001702B4E79A6822F0700242F02702AEE7E1
:1025D0001A4A036890420AD0B0F1804F07D0A2F5A2
:1025E0009432904203D002F58062904215D14A683D
:1025F00023F070031343114A90420AD0B0F1804F88
:1026000007D0A2F59432904203D002F58062904246
:1026100003D1CA6823F4407313434A6923F080034B
:10262000134303608B68C3620B688362034B984259
:1026300004BF0B690363012343617047002C014011
:1026400010B50446A0B190F83D3003F0FF021BB96D
:1026500080F83C2001F0C2F80223206884F83D3065
:10266000211DFFF7B5FF0123002084F83D3010BD88
:10267000012010BD10B50446A0B190F83D3003F024
:10268000FF021BB980F83C20FFF7E8FE0223206818
:1026900084F83D30211DFFF79BFF0123002084F8C3
:1026A0003D3010BD012010BD036A70B523F010034A
:1026B0000362036A446882690D6822F4E64242EAD2
:1026C00005228D6823F0200343EA05130B4DA84231
:1026D0000DD1CD6823F0800343EA05138E694D695F
:1026E00024F44064354323F0400344EA8504446005
:1026F00082614A688263036270BD00BF002C0140A2
:1027000038B590F83C300446012B4FF0020025D03C
:10271000012384F83D0084F83C300C2A18D8DFE807
:1027200002F0071717171E1717172F171717400054
:102730002068FFF71FFE236809699A6942F00802C2
:102740009A619A6922F004029A619A690A439A612D
:102750000123002084F83D3084F83C0038BD206817
:10276000FFF7A2FF236809699A6942F400629A613F
:102770009A6922F480629A619A6942EA0122E6E744
:102780002068FFF71FFE23680969DA6942F0080232
:10279000DA61DA6922F00402DA61DA690A43DA619D
:1027A000D6E72068FFF738FE23680969DA6942F442
:1027B0000062DA61DA6922F48062DA61DA6942EA97
:1027C0000122ECE710B50124036A8C4023EA0403DC
:1027D0000362036A8A401A43026210BD10B50446C0
:1027E00001220068FFF7EEFF2368064A00209342AB
:1027F00002BF5A6C42F400425A641A6842F0010265
:102800001A6010BD002C014090F83C3010B5012B2F
:102810004FF0020318D080F83D3003680C685A6806
:10282000496822F070025A605A6822435A609A68D6
:1028300022F080029A609A680A439A60012380F825
:102840003D30002380F83C30184610BD0368DA683C
:1028500022F49072DA605A6922F001025A61202350
:1028600080F83A30704700002DE9F0470568C268EB
:102870002B69016923F4405313432B618368EA6891
:102880000B43416922F4B05222F00C020B43134374
:10289000EB606B69826923F4407313436B61404BB7
:1028A00081469D424FF0190446D1FFF753FD04FBCA
:1028B00000F3D9F804604FF06408B600B3FBF6F3F8
:1028C000B3FBF8F31E01FFF745FD6043D9F8043070
:1028D0009B00B0FBF3F7FFF73DFD6043D9F80430F0
:1028E0009B00B0FBF3F3B3FBF8F308FB13731B017E
:1028F0003233B3FBF8F303F0F007FFF72BFD60432F
:10290000D9F804209200B0FBF2FAFFF723FD6043F0
:10291000D9F804309B00B0FBF3F3B3FBF8F308FBEA
:1029200013A31B013233B3FBF8F303F00F033B4354
:102930003344AB60BDE8F087FFF7FCFC04FB00F319
:10294000D9F804604FF06408B600B3FBF6F3B3FBAC
:10295000F8F31E01FFF7EEFC6043D9F804309B004A
:10296000B0FBF3F7FFF7E6FC6043D9F804309B00B7
:10297000B0FBF3F3B3FBF8F308FB13731B01323323
:10298000B3FBF8F303F0F007FFF7D4FC6043D9F88A
:1029900004209200B0FBF2FAFFF7CCFCB7E700BFCF
:1029A0000038014010B5044640B390F8393003F0C8
:1029B000FF021BB980F8382000F03CFF2423226876
:1029C00084F83930D368204623F40053D360FFF7EE
:1029D0004BFF236800201A6922F490421A615A6959
:1029E00022F02A025A61DA6842F40052DA602023A7
:1029F000E06384F8393084F83A3010BD012010BD0E
:102A000038B50446134694F83920202A2AD139B320
:102A100033B394F83820012A24D00122002584F809
:102A200038202122E384206BE56384F839200E4AA4
:102A3000A384216282620D4A4563C2620C4A02632A
:102A400022680432FEF7F4FF6FF040022368284644
:102A50001A605A6984F8385042F080025A6138BDD1
:102A6000012038BD022038BD072B0008352B000897
:102A7000012C0008134690F83A2073B5202A054629
:102A800038D1002934D0002B32D090F83820012AD8
:102A900030D00122002480F83820222281628385F0
:102AA000C46380F83A20406B134A2E688262134A4E
:102AB0004463C262124A02630A46311DFEF7B8FF40
:102AC00020462B6801941A6801925A6885F83840AC
:102AD0000192019ADA6842F48072DA605A6942F02F
:102AE00001025A615A6942F040025A6102B070BD57
:102AF0000120FBE70220F9E73F2B0008F52B000837
:102B0000012C0008704708B50368426A1B6813F07F
:102B100020030AD1D38413685A6922F080025A61D3
:102B2000DA6842F04002DA6008BD1046FFF7EAFFBB
:102B300008BD704708B5406AFFF7FBFF08BD08B540
:102B40000368426A1B6813F0200310D1D385136811
:102B5000D96821F48071D960596921F00101596166
:102B6000596921F040015961202382F83A3010461A
:102B700000F042FB08BD90F83A3010B5222B36D158
:102B800083680169B3F5805F0268836A23D1526864
:102B9000E9B9C2F3080223F8022B8362C48D013C19
:102BA000A4B2C4858CB90368DA6822F02002DA6026
:102BB000DA6822F48072DA605A6922F001025A61FE
:102BC000202380F83A3000F017FB002010BDD2B26D
:102BD00023F8012BE1E721B9591C526881621A7070
:102BE000DCE75268591C816202F07F02F7E702209D
:102BF00010BD704708B5406AFFF7FBFF08BD70477E
:102C0000416A08B50B685A6991F8390021280AD140
:102C1000120608D50022CA84DA6822F0C002DA60FF
:102C2000202281F839205B6991F83A20222A06D1C6
:102C30005B0604D500230846CB85FFF707FECB6B68
:102C4000084643F01003CB63FFF7D9FF08BD00002F
:102C5000036870B51A6804461607D9685D6907D11C
:102C600096065AD58D0658D5BDE87040FFF783BF4C
:102C700015F0010502D111F4907F4ED0D30705D590
:102C8000CE0542BFE36B43F00103E363500704D575
:102C90001DB1E36B43F00203E363930704D51DB159
:102CA000E36B43F00403E363160704D51DB1E36B44
:102CB00043F00803E363E36B002B66D0950604D56D
:102CC000880602D52046FFF756FF236820465D6937
:102CD000E26B110702D415F040051AD0FFF7B6FDDC
:102CE00023685A69520610D55A69606B22F0400277
:102CF0005A6150B1254B4363FEF7D8FE002844D0FB
:102D0000606BBDE87040436B18472046FFF777FFC4
:102D100070BDFFF774FFE56370BD160627D50D067D
:102D200025D594F83920212A2FD1A268B2F5805FE9
:102D3000226A17D11188C1F308015960216979B954
:102D400002322262E28C013A92B2E284EAB9DA6893
:102D500022F08002DA60DA6842F04002DA6070BD88
:102D60000132EEE7511C216212785A60EAE7500600
:102D70000BD54A0609D5DA68204622F04002DA600F
:102D8000202384F83930FFF7BDFE70BD912D000877
:102D900008B50023406AC385C384FFF730FF08BD30
:102DA00090B585B000AFF860B9607A603B600C20E8
:102DB00000F08DFE03461C46B968204600F0A4F8DA
:102DC000FB685C600C2000F082FE03461C467968BC
:102DD000204600F099F8FB689C600C2000F077FE1C
:102DE00003461C463968204600F08EF8FB68DC601C
:102DF0000C2000F06CFE03461C46396A204600F0A9
:102E000083F8FB681C6113E0204600F05EFE00F0D2
:102E10006FFE204600F059FE00F06AFE204600F0EA
:102E200054FE00F065FE204600F04FFE00F060FE0C
:102E30001437BD4690BD000080B586B002AFF86083
:102E4000B9607A603B60084AFB681A60BB6900930E
:102E50003B687A68B968F868FFF7A2FFFB68184614
:102E60001037BD4680BD00BF1048000880B483B055
:102E700000AF7860044A7B681A607B6818460C379C
:102E8000BD4680BC704700BF1048000880B582B0C6
:102E900000AF78607868FFF7E9FF786800F015FE0A
:102EA0007B6818460837BD4680BD80B582B000AF4C
:102EB000786039603B6801331946786800F004F89F
:102EC00000BF0837BD4680BD80B584B000AF7860D4
:102ED00039600023FB60FB68032B11D87A68FB681C
:102EE0009B0013445868FB685B003A6813441B88D6
:102EF000DBB2194600F044F8FB680133FB60EAE7F7
:102F000000BF1037BD4680BD80B483B000AF78608D
:102F10003960094A7B681A607B683A685A607B6846
:102F2000B4225A727B6800221A727B6818460C37EA
:102F3000BD4680BC704700BF3048000880B483B0F5
:102F400000AF78600B467B807B8840F289229342F9
:102F500002DC40F28A237B807B8840F62822934261
:102F600002DD40F628237B807B685B687A881A60E4
:102F700000BF0C37BD4680BC704700000000000059
:102F800090B585B000AF78600B46FB70FB787A682F
:102F9000127A934202DA7B681B7AFB70FB787A68BC
:102FA000527A934202DD7B685B7AFB70FB781846AD
:102FB000FDF72AFA4FF00002154BFDF7B5FB03466B
:102FC0000C461846214610A3D3E90023FDF782FAE8
:102FD00003460C46184621464FF000020D4BFDF704
:102FE000C7F803460C46C7E90234D7E90201FDF7EA
:102FF00083FC03469BB219467868FFF79FFF00BF2A
:103000001437BD4690BD00BF0000000000789E4010
:10301000008066400050844080B483B000AF786088
:10302000044A7B681A607B6818460C37BD4680BC32
:10303000704700BF3048000880B582B000AF7860AC
:103040007868FFF7E9FF786800F03FFD7B68184675
:103050000837BD4680BD80B584B000AFF860B96068
:103060007A60FB68BA689A61FB687A68DA61FB6823
:1030700004330A221946B868FFF7FCFC00BF10377A
:10308000BD4680BD80B584B000AFF860B9607A609D
:10309000064AFB681A607A68B968F868FFF7DBFFD0
:1030A000FB6818461037BD4680BD00BF5048000879
:1030B00080B483B000AF7860044A7B681A607B6894
:1030C00018460C37BD4680BC704700BF504800080A
:1030D00080B582B000AF78607868FFF7E9FF786864
:1030E00000F0F3FC7B6818460837BD4680BD80B50C
:1030F00082B000AF78607B6898697B6804330A22ED
:103100001946FFF77DFC00BF0837BD4680BD0000B3
:1031100090B585B000AF78607B681B79402B1AD1E1
:103120007B685B7B802B16D17B68DC69786800F05C
:1031300057F8034619462046FFF7B7FE20212748D7
:10314000FEF775FE7B6898697B6804330A2219468E
:10315000FFF790FC3DE00123FB60FB68092B30DCAE
:103160007A68FB68134404331B78402B25D1002375
:10317000BB60FB68C3F10A02BB689A420FDDBA6804
:10318000FB6813447A68134419797A68BB6813445E
:1031900004330A461A70BB680133BB60E9E77B68F9
:1031A00098697B681A1DFB68C3F10A031344FA6827
:1031B00092B21946FFF75EFC0BE0FB680133FB603F
:1031C000CBE77B6898697B6804330A221946FFF7CE
:1031D00051FC00BF1437BD4690BD00BF0008014040
:1031E00080B483B000AF78607B68043318460C3736
:1031F000BD4680BC7047000080B582B000AF7860EB
:10320000044B1B681846FFF783FF00BF0837BD4615
:1032100080BD00BF6802002080B582B000AF0346C9
:10322000FB80044B1B681846FFF761FF00BF08379F
:10323000BD4680BD6802002090B583B002AFFEF7A6
:1032400025FB00F053F800F00BFA00F0D3F900F082
:1032500069F900F0A3F800F099F900211B48FFF785
:10326000BDFA04211948FFF7B9FA08211748FFF7FA
:10327000B5FA0C211548FFF7B1FA142000F027FC2D
:1032800003461C46124B0093124B134A1349204627
:10329000FFF7D2FD124B1C602C2000F018FC0346F7
:1032A0001C460F4B1B681A460E492046FFF7EAFEE4
:1032B0000D4B1C60FEE7204600F007FC00F018FCF8
:1032C000204600F002FC00F013FC00BF9400002038
:1032D000400800403C0800403808004034080040E6
:1032E00064020020140100206802002080B590B024
:1032F00000AF0223BB610123BB621023FB620223E8
:103300007B630023BB634FF46013FB6307F1180377
:103310001846FEF79DFD0346002B14BF0123002332
:10332000DBB2002B03D0B9211A4800F001FA0F23B9
:103330007B600223BB600023FB604FF480633B6132
:1033400000237B613B1D02211846FEF749FF03461F
:10335000002B14BF01230023DBB2002B03D0C721B5
:103360000C4800F0E5F9FEF7DFFF02460A4BA3FB2D
:1033700002239B091846FEF7FFFA0420FEF712FB12
:10338000002200214FF0FF30FEF7B6FA00BF4037B1
:10339000BD4680BD70480008D34D621080B58EB028
:1033A00000AF5D4B5D4A1A605B4B3F225A605A4B3F
:1033B00000229A60584B44F61F62DA60564B002296
:1033C0001A61554B80229A615348FFF739F9034639
:1033D000002B14BF01230023DBB2002B03D0E62116
:1033E0004F4800F0A5F94FF48053BB6207F1280362
:1033F00019464948FFF733F80346002B14BF012351
:103400000023DBB2002B03D0EC21454800F090F9FB
:103410004148FFF72FF90346002B14BF0123002377
:10342000DBB2002B03D0F1213D4800F081F90023ED
:103430003B6200237B6207F1200319463648FFF701
:10344000E3F90346002B14BF01230023DBB2002B5A
:1034500003D0F821324800F06BF960237B6040F222
:10346000DC53BB600023FB6000237B613B1D00221B
:1034700019462948FFF744F90346002B14BF0123DE
:103480000023DBB2002B04D040F20111244800F0ED
:103490004FF904237B613B1D042219461E48FFF7A8
:1034A0002FF90346002B14BF01230023DBB2002BAE
:1034B00004D040F207111A4800F03AF93B1D0822E7
:1034C00019461548FFF71CF90346002B14BF0123CA
:1034D0000023DBB2002B04D04FF48671104800F0BB
:1034E00027F93B1D0C2219460B48FFF709F9034643
:1034F000002B14BF01230023DBB2002B04D040F2C9
:103500001111074800F014F9034800F07BF900BFDF
:103510003837BD4680BD00BF940000200008004041
:103520007048000880B500AF154B164A1A60144B5E
:103530004FF4E1325A60124B00229A60104B002285
:10354000DA600F4B00221A610D4B0C225A610C4BB2
:1035500000229A610A4B0022DA610948FFF722FA39
:103560000346002B14BF01230023DBB2002B04D041
:103570004FF49371044800F0DBF800BF80BD00BF3A
:10358000D4000020004400407048000880B500AF1F
:10359000154B164A1A60144B4FF4E1325A60124B25
:1035A00000229A60104B0022DA600F4B00221A6151
:1035B0000D4B0C225A610C4B00229A610A4B0022DF
:1035C000DA610948FFF7EEF90346002B14BF012327
:1035D0000023DBB2002B04D040F23911044800F084
:1035E000A7F800BF80BD00BF1401002000480040C4
:1035F0007048000880B582B000AF184A174B5B696D
:1036000043F001035361154B5B6903F001037B60D9
:103610007B68002200210C20FEF76EF90C20FEF7DB
:103620009FF9002200210D20FEF766F90D20FEF71C
:1036300097F9002200211020FEF75EF91020FEF716
:103640008FF9002200211120FEF756F91120FEF714
:1036500087F900BF0837BD4680BD00BF001002409B
:1036600080B588B000AF2E4A2D4B9B6943F0100304
:1036700093612B4B9B6903F01003FB60FB68284AA6
:10368000274B9B6943F020039361254B9B6903F013
:103690002003BB60BB68224A214B9B6943F00403B3
:1036A00093611F4B9B6903F004037B607B681C4A9A
:1036B0001B4B9B6943F008039361194B9B6903F013
:1036C00008033B603B68002220211648FEF7AAFB56
:1036D0004FF400533B61144B7B610023BB6107F146
:1036E000100319461148FEF7BDFA20233B61012360
:1036F0007B610023BB610223FB6107F110031946C4
:103700000848FEF7AFFA002200212820FEF7F4F85F
:103710002820FEF725F900BF2037BD4680BD00BF39
:10372000001002400008014000001110001001408C
:1037300080B483B000AF78603960FEE7254B07B5F1
:103740009A69032042F001029A619A6902F001022B
:103750000092009ADA6942F08052DA61DB6903F084
:1037600080530193019BFEF7B5F800226FF00B0028
:103770001146FEF7C1F800226FF00A001146FEF76D
:10378000BBF800226FF009001146FEF7B5F80022E1
:103790006FF004001146FEF7AFF800226FF003004F
:1037A0001146FEF7A9F800226FF001001146FEF75E
:1037B000A3F800224FF0FF301146FEF79DF8064AAD
:1037C000536823F0E06343F00073536003B05DF887
:1037D00004FB00BF00100240000001400268084BDB
:1037E00082B09A420AD103F50233DA6942F0040248
:1037F000DA61DB6903F004030193019B02B07047B7
:10380000000800401FB50268084B9A420AD1022303
:103810004FF470728DE80C0003236946044803934B
:10382000FEF720FA05B05DF804FB00BF0008004079
:10383000000C014070B50368574A86B093420546B4
:103840004AD1564B5648DA6902A942F40032DA618D
:10385000DB69544C03F400330093009B0C23029368
:10386000022303930593FEF7FDF94F4B802223605B
:10387000002320466360A360E26023616361A3616B
:10388000E361FEF7A1F818B1BD214848FFF750FFEA
:103890004FF0100C464B6C636562464C802284E806
:1038A000081000232046A360E26023616361A361E6
:1038B000E361FEF789F818B1CD213C48FFF738FFE6
:1038C000002226202C6311466562FEF715F826209B
:1038D000FEF746F806B070BD374A9342FAD12F4B37
:1038E00002A9DA69354842F48022DA61DB690026F0
:1038F00003F480230193019B4FF48063029302231E
:10390000039303230593FEF7ADF94FF400632B48AF
:1039100002A9029303960496FEF7A4F9284A294CBB
:103920005368204623F0300343F0E06343F0100374
:103930005360254BA66084E8480080232661E3603D
:103940006661A661E661FEF73FF818B1FD211748F0
:10395000FFF7EEFE4FF0100C1C4B6C6365621C4CC5
:10396000802284E8081000232046A360E2602361DF
:103970006361A361E361FEF727F820B140F20D1106
:103980000A48FFF7D5FE002227202C631146656206
:10399000FDF7B2FF27209BE70044004000100240E3
:1039A00000080140540100206C00024080480008DB
:1039B00080000240980100200048004000100140B3
:1039C00000000140DC010020300002401C000240E9
:1039D0002002002008B5FDF76BFFBDE80840FDF7A9
:1039E000EEBF00000148FEF7A9B800BF200200208A
:1039F0000148FEF7A3B800BFDC0100200148FEF734
:103A00009DB800BF540100200148FEF797B800BFE1
:103A1000980100200148FFF71BB900BFD400002027
:103A20000148FFF715B900BF140100204FF4005002
:103A3000FEF702BA0F4B1A6842F001021A60596889
:103A40000D4A0A405A601A6822F0847222F48032C9
:103A50001A601A6822F480221A605A6822F4FE0260
:103A60005A604FF41F029A604FF00062034B9A6055
:103A7000704700BF001002400000FFF800ED00E0BA
:103A8000002103E00B4B5B58435004310A480B4BB9
:103A900042189A42F6D30A4A02E0002342F8043B55
:103AA000084B9A42F9D3FFF7C5FF00F039FDFFF745
:103AB000C3FB7047584C000800000020780000202D
:103AC0007800002090020020FEE700F055BD10B500
:103AD000002814BF04460124204600F045FD30B9FB
:103AE00000F050FB08B900F013FD8047F4E710BD6B
:103AF0001EB400F09CF81EBCFDF79AFC0378472B1F
:103B000017D143784E2B14D18378552B11D1C3781C
:103B1000432B0ED10379432B0BD143792B2B08D1A7
:103B200083792B2B05D1C07901288CBF002001207F
:103B300070470020704700002DE9F3411E460378CE
:103B40000D46472B0246C17947D143784E2B44D1CD
:103B50008378552B41D1C378432B3ED10379462B33
:103B60003BD143794F2B38D18379522B35D1002962
:103B700033D1012308460024019433BB38BB01290B
:103B80000ABF52F8203CA2F12003783B01290CBF68
:103B900052F8202C58321C680192236820469B68FA
:103BA0009847B0B10227019B1B6801932B6801AABB
:103BB000D3F81080214601232846C04758B1019B05
:103BC0003360384602B0BDE8F081084CE5E7084CA8
:103BD000E3E70127EAE70746F3E71046FFF78EFF22
:103BE00080F00100C0B20023C5E700BF28490008EB
:103BF0003049000810B5044600F084FC0246204617
:103C0000A4F12001FFF77AFF60B154F8043C0133BE
:103C1000012B44F8043C03D1936844F8083C9160BC
:103C2000012010BD9368002BF9D000F053FC10B5B3
:103C300000F068FC826801460AB900F04BFC02F112
:103C400020042046FFF75AFF40B1D369013BD361FE
:103C500013B9906988609361204610BD8860FBE7C6
:103C6000002370B5A0EBC006C0EBC00210F8015BEA
:103C7000941905F07F02A24013432A06F4D40B6086
:103C800070BD00231A4630B510F8014B04F07F05D3
:103C900095402B43250602F10702F5D41F2A06D8CA
:103CA000640642BF4FF0FF3404FA02F213430B6084
:103CB00030BD5028F7B505460E4614461F4607D1BD
:103CC000D01C20F0030050F8043B3B6003B0F0BD73
:103CD00000F00F030C2B2ED8DFE803F025071D257D
:103CE000292D2D2D2D182125290001A92046FFF76A
:103CF000B7FF019B002BE8D005F07002102A08BF27
:103D000026462A06334448BF1B68DEE701A9204641
:103D1000FFF7B7FFEDE7204630F8023BEAE7204621
:103D200030F9023BE6E7204650F8043BE2E7204644
:103D300050F8083BDEE700F0EBFB08B50346FF2B2D
:103D4000084607D003F07003202B0DD004D80BB128
:103D5000102B07D1002008BD402B0DD0502BF9D0DF
:103D6000302B05D000F0D4FBBDE80840FDF762BD64
:103D7000BDE80840FDF762BDBDE80840FDF74ABD5B
:103D800070B50C460146204615461E46FFF7D5FF86
:103D900033462A4601462046BDE87040FFF789BFFA
:103DA00073B50E461446054618B3FDF733FD206083
:103DB0003178721CFF291DD0231D2846FFF7E0FF34
:103DC00002461378501CFF2B237515D0102301A930
:103DD0002375FFF745FF019B0344E360037801A9C6
:103DE00063750130FFF73CFF019B0344236102B080
:103DF00070BDDCE76060E4E70023EEE71FB503ABCE
:103E0000009300230A461946FCF768FF039805B0A3
:103E10005DF804FB00232DE9F04F91B0049300F00E
:103E20000303012B07460C46164611D003D3022B81
:103E300003D000F06DFB02071AD531462046FDF78E
:103E4000D3FC18B1092011B0BDE8F08F0820FAE7C3
:103E500000F0080505F0FF0885BBD1F8209010465A
:103E60000D21FFF7CBFF814540F04081062500E0A2
:103E7000012510AB43F82C4D0093002307F00807F1
:103E80003D430C2219463046FCF74EFF062D40F00C
:103E90003981D4F83080A76AB8F1000F0CBF4FF019
:103EA000010A4FF0030AE16A15F0080500F0CE8020
:103EB000BAF1010F40F0C68000F00CFB0225D8E7F4
:103EC000079A13449F4280F03781DDF82080B8F1D3
:103ED000000F01D00B9B9844099F17B1781E0E9FCD
:103EE0000744B8F1000FA8D0002F00F0A18015F012
:103EF0000803029336D0472323704E236370552363
:103F0000A3704323E370462323714F23637152232D
:103F1000A3710023E3714FF0000A6FF0030B07A9B0
:103F20003846FFF7AEFE08A90390FFF7AAFE079AEE
:103F3000002A76D03DDD9DF83C00FF2835D000F00A
:103F40000703042B3FF675AF01A151F823F000BF22
:103F5000AF3F0008333E0008773F0008AF3F00083E
:103F6000A73F0008E379012B0CBF54F8203C04F173
:103F700058030493CFE702270D9909AB07FB1212F0
:103F80000C99FFF796FE099969B32CB104AB002296
:103F90002046FFF7D1FD30BB089F002F44D0039B84
:103FA0003B441F46BBE70827E6E70027E4E7042772
:103FB000E2E70D9F01326CB3029B5BBB0BFB02720D
:103FC000049B171F069357F8041F41B106AB00224C
:103FD00039442046FFF7B0FD0028F4D0012181F0DC
:103FE00001010029D8D04FF0030A079FEB0727D51E
:103FF000BAF1020F3FF421AF0D213046049DFFF7C7
:10400000FDFE65622062A762C4F82C90C4F830807F
:10401000062018E70BFB02F2B958B1FA81F1490901
:10402000DFE74FF0010AB7E7BAF1000F3FF405AF41
:104030004FF0020ADAE700274FF0010AB846D5E749
:10404000494631E7002F23DA00F056FABAF1010FA2
:1040500002D1204600F0C8F9002F19DA0AAA30462A
:10406000FFF79EFE31469DF83C00FFF766FE6FF0BD
:10407000030307FB03320D9B0C90134453F82520D8
:104080000AB10135FAE70422A562E06222636363A4
:1040900010AB43F81C4D0093002330461A461946D6
:1040A000FCF742FE10AB43F8207D00930023012271
:1040B00019463046FCF738FE0F213046FFF79EFECA
:1040C00000F0010010AB40EA080043F8240D009313
:1040D00000230F2219463046FCF726FEBAF1020FE4
:1040E00002D12046FFF786FD0720ACE610AA42F871
:1040F0002C4D009243460C224146304645F00205C5
:10410000FCF712FE3046FDF78BFB814600283FF49A
:1041100094AE0AAA01463046FFF742FE3146804679
:104120009DF83C00FFF709FE0F210C903046FFF789
:1041300065FE20F00100471E0E9B9845BFF47BAF43
:10414000424606AB9DF83D100020FFF719FE07AB75
:1041500002469DF83D100020FFF712FE08AB024614
:104160009DF83D100020FFF70BFE09A9FFF778FD31
:10417000069A0A9B804613449F42BFF4A1AEDDF825
:104180003880D9E7024B1868BFF35B8F704700BFD8
:104190006C0200207FB510230024029303681546AB
:1041A0009E6900946B468DF8044003941268B047F2
:1041B0009DF8043003F00603062B09BF01202046BA
:1041C000009B2B6004B070BD009890420CBF06208D
:1041D0000120704710B50446024B036000F04BF815
:1041E000204610BDEC48000810B50446FFF7F2FF6A
:1041F0002046082100F08AF9204610BD38B5154642
:104200001C4600F03BF820B10823E360062325603C
:10421000237138BD2DE9F04105460C4616461F4670
:1042200000F02CF848B9032F07D8236832462946F6
:104230002046BDE8F0415B691847BDE8F0812DE9F3
:10424000F041069E9846089B07469E421546099CEB
:1042500003D1079900F012F858B94146384600F0EA
:104260000DF818B1012326602571A3710020BDE867
:10427000F0816571FAE7704700207047814208B508
:104280000ED0406803782A2B0CD049680B782A2B73
:1042900008BF0131FBF75CFFB0FA80F0400908BDB0
:1042A000012008BD002008BD10B50446024B036084
:1042B000FFF790FF204610BDB849000810B504462E
:1042C000FFF7F2FF20460C2100F020F9204610BD38
:1042D0002DE9F041069E804696420F4614461D4643
:1042E00003D11946FFF7CAFF58B9D8F8080022468B
:1042F000036806961E6A39462B46B446BDE8F0416F
:1043000060470620BDE8F0812DE9F14F0E461946C1
:104310008346174699460A9CDDF82CA0DDF83080CC
:104320000D9DFFF7ABFF90B1002E2C602F7109DBC4
:104330003444A0450CBF06240124AC71002001B018
:10434000BDE8F08F0236F9D10123AB71F6E74445A1
:1043500004D151465846FFF791FF88B9DBF80800B1
:104360003A4603680D95CDF83080CDF82CA00A941C
:10437000DC6931464B46A44601B0BDE8F04F6047CA
:104380006F71DBE72DE9F04104460D4616461F46E6
:10439000FFF734FF48B9A0683246036829469C6994
:1043A0003B46A446BDE8F0416047BDE8F081037894
:1043B000472B17D143784E2B14D18378552B11D12D
:1043C000C378432B0ED10379432B0BD143792B2B8D
:1043D00008D183792B2B05D1C07901288CBF00200F
:1043E000012070470020704710B5044648B100F026
:1043F0003BF82046FFF7DBFF18B154F8140C00F02F
:104400005DF800F067F838B50246FFF7D0FF40B11D
:10441000002552F8184C104600F026F825B100F09F
:104420006BF804460125F6E7204600F058F80378BB
:10443000472B17D143784E2B14D18378552B11D1AC
:10444000C378432B0ED10379432B0BD143792B2B0C
:1044500008D183792B2B05D1C07901288CBF00208E
:10446000012070470020704738B5054600F04AF833
:10447000014602682846A5F12004FFF7D8FF30B9AD
:104480000AB100F027F80C601446204638BD55F8F4
:104490000C3C2846002BB4BFC3F10103013345F89F
:1044A0000C3C4B68A24203F1FF334B601CBF45F844
:1044B000102C0C606C6AFCF709FCE6E708B5804735
:1044C00000F026F8024B1868BFF35B8F704700BFFF
:1044D0000C00002008B5FFF7F5FFFFF7EFFF08B568
:1044E0008047FFF7F7FF0000024B1868BFF35B8FB0
:1044F000704700BF1000002008B5FFF7F5FFFFF779
:10450000EEFF00000048704770020020FFF7DDBAA0
:1045100008B5062000F01AF9012000F05FF900004C
:1045200070B500250C4E0D4CA41BA410A54209D15A
:1045300000F056F900250A4E0A4CA41BA410A5420F
:1045400005D170BD56F8253098470135EEE756F88D
:10455000253098470135F2E7504C0008504C0008D0
:10456000504C0008544C0008024B0146186800F0FB
:1045700057B800BF14000020024B0146186800F035
:1045800003B800BF1400002038B50546002943D009
:1045900051F8043C0C1F002BB8BFE41800F0F2F8EF
:1045A0001E4A1368104633B9636014602846BDE89C
:1045B000384000F0E8B8A3420BD921686218934252
:1045C00001BF1A685B685218226063600460EDE7FF
:1045D00013465A680AB1A242FAD919685818A0427B
:1045E0000BD120680144581882421960DED110684E
:1045F0005268014419605A60D8E702D90C232B6035
:10460000D4E7206821188A4201BF1168526809184E
:10461000216062605C60C9E738BD00BF7C02002099
:1046200070B5CD1C25F0030508350C2D38BF0C25C1
:10463000002D064601DBA94203D90C23336000207C
:1046400070BD00F09FF8234A1468214691B9224CAE
:1046500023681BB9304600F041F8206029463046F7
:1046600000F03CF8431C26D10C233046336000F0A8
:104670008AF8E4E70B685B1B1AD40B2B0FD90B608D
:10468000CC18CD50304600F07EF804F10B00231D0D
:1046900020F00700C31A1BD05A42E25070BD8C4272
:1046A0000BBF63684B681360636018BF0C46E9E793
:1046B0000C464968CAE7C41C24F00304A04205D094
:1046C000211A304600F00AF80130CDD02560D9E734
:1046D00070BD00BF7C0200208002002038B500239E
:1046E000054C05460846236000F06AF8431C02D1D9
:1046F000236803B12B6038BD8C0200201F2938B518
:1047000004460D4604D9162303604FF0FF3038BD30
:10471000426C12B152F821304BB9204600F030F80B
:104720002A4601462046BDE8384000F017B8012B64
:104730000AD0591C03D116230360012038BD002480
:10474000284642F825409847002038BD024B0146D4
:104750001868FFF7D3BF00BF1400002038B500234E
:10476000064C054608461146236000F021F8431C1C
:1047700002D1236803B12B6038BD00BF8C0200203A
:1047800000F00EB87047704710B5431E0A449142BE
:1047900000D110BD11F8014B03F8014FF7E70000FD
:1047A0005822024B4FF0FF301A6070478C020020F5
:1047B0005822024B4FF0FF301A6070478C020020E5
:1047C000044B0246196809B9034919601868024484
:1047D0001A6070478402002090020020FEE700006B
:1047E000F8B500BFF8BC08BC9E467047F8B500BFDE
:0847F000F8BC08BC9E467047AE
:1047F80002030405060708090A0B0C0D0E0F10101A
:1048080000000000184800086D2E00088D2E0008D2
:10481800EC4800082048000835526F626F740000A9
:104828000000000038480008193000083930000836
:10483800EC4800084048000835536572766F000060
:104848000000000058480008B1300008D1300008C6
:10485800EC480008604800083131554152545F5017
:10486800435F434F4D0000002E2E2F5372632F6D70
:1048780061696E2E637070002E2E2F5372632F7332
:10488800746D3332663178785F68616C5F6D737010
:104898002E6300000000000000000001020304066F
:1048A800070809000000000102030400B8490008D5
:1048B800C0480008104900084E31305F5F637878BF
:1048C800616269763131375F5F636C6173735F74FE
:1048D8007970655F696E666F450000000000000032
:1048E800B4480008D5410008E941000879420008A9
:1048F800794200081542000895410008FD4100086A
:104908003F420008C9410008EC480008184900085F
:10491800537439747970655F696E666F00000000C2
:10492800EC48000838490008EC48000858490008D5
:104938004E31305F5F637878616269763131355F17
:104948005F666F726365645F756E77696E64450054
:104958004E31305F5F637878616269763131395FF3
:104968005F666F726569676E5F65786365707469A5
:104978006F6E4500B849000888490008B448000827
:104988004E31305F5F637878616269763132305FCB
:104998005F73695F636C6173735F747970655F6976
:1049A8006E666F4500000000000000007C490008AA
:1049B800A9420008BD42000879420008794200086F
:1049C800154200089541000885430008094300087E
:0449D800D1420008C0
:1049DC0039F4FF7F84049701B0B0B009FFFF0125C3
:1049EC00100400001C04680026040000320472004D
:1049FC003C04000048047C00520400005E04860164
:104A0C00006E22000000000003970181B0B0088402
:104A1C000000000001970181B0B008840000000084
:104A2C0003970181B0B00884000000000397018156
:104A3C00B0B008840000000003970181B0B0088476
:104A4C000000000001970181B0B008840000000054
:104A5C0004970181B0B00984000000000197018126
:104A6C00B0B008840000000001970181B0B0088448
:104A7C000000000095F3FF7F84009701B0B0B009EF
:104A8C00FFFF01160642000058047E00620400007D
:104A9C00740488010084010E000000000F9701814E
:104AAC00B0B00884000000000D970181B0B00884FC
:104ABC000000000001970181B0B0088400000000E4
:104ACC0007970181B0B008840000000008B1018193
:104ADC00B0B000840000000008B10181B0B00084C7
:044AEC0000000000C6
:104AF00048BEFF7F01000000DCBEFF7FB0A902803E
:104B000078BFFF7FB0B0A880C8BFFF7F0100000062
:104B1000D4BFFF7FB0B0AA800CC0FF7FAE71B2805F
:104B2000DCC0FF7F01000000D8C0FF7FAB3F3880B2
:104B300030C1FF7F010000003CC1FF7FB0B0AA8000
:104B400078C1FF7F0100000030C2FF7FAB0EB28052
:104B50009CC2FF7FB0AF0A8064C5FF7F01000000E8
:104B600068C5FF7FAB3F0480ACC7FF7F010000003A
:104B700088C9FF7F008404809CC9FF7F010000007A
:104B800098C9FF7FB0AD048060CCFF7FB0A90480DE
:104B900084CCFF7F44FFFF7F88CCFF7F48FFFF7FEF
:104BA00094CCFF7F01000000F8E1FF7F30FEFF7F23
:104BB00088E2FF7F60FEFF7FB4E2FF7F010000001C
:104BC000EAE2FF7F5CFEFF7F00E3FF7F60FEFF7F86
:104BD00038E3FF7F010000007EE4FF7F5CFEFF7F83
:104BE000A4E4FF7F60FEFF7FC8E4FF7F01000000B8
:104BF000FEE4FF7F5CFEFF7F18E5FF7F60FEFF7F26
:104C0000E0E5FF7F01000000F0E5FF7F5CFEFF7F35
:104C100008E6FF7F60FEFF7F20E6FF7F64FEFF7FE8
:104C2000CCE6FF7F84FEFF7F74E7FF7F88FEFF7F77
:104C3000F4E8FF7F08849780BCE9FF7F84FEFF7F54
:104C400020EAFF7F88FEFF7FE8EAFF7F0100000087
:044C50003501000822
:044C54001101000842
:104C5800010000001000000000A24A0411450008ED
:104C6800D5440008180000200000000000000000E3
:104C7800000000000000000000000000000000002C
:104C8800000000000000000000000000000000001C
:104C9800000000000000000000000000000000000C
:104CA80000000000000000000000000000000000FC
:104CB80000000000000000000000000000000000EC
:084CC8000000000000000000E4
:0400000508003A8134
:00000001FF
