:020000040800F2
:100000000050002091C20008D9C20008D9C20008DF
:10001000D9C20008D9C20008D9C2000800000000F7
:10002000000000000000000000000000D9C200082D
:10003000D9C2000800000000D9C20008C1C10008F0
:10004000D9C20008D9C20008D9C20008D9C2000824
:10005000D9C20008D9C20008D9C20008D9C2000814
:10006000D9C20008D9C20008D9C20008D1C100080D
:10007000DDC10008E9C10008D9C20008D9C20008E2
:10008000F5C1000801C200080DC20008D9C200086D
:10009000D9C20008D9C20008D9C20008D9C20008D4
:1000A000D9C20008D9C20008D9C20008D9C20008C4
:1000B00019C20008D9C20008D9C20008D9C2000874
:1000C000D9C20008D9C20008D9C20008D9C20008A4
:1000D000D9C20008D9C2000825C2000831C20008F0
:1000E0003DC20008D9C20008D9C2000800000000C3
:1000F0000000000000000000000000000000000000
:0C01000000000000000000005FF808F1A3
:1001100010B5054C237833B9044B13B10448AFF341
:1001200000800123237010BD940600200000000011
:10013000601D010808B5034B1BB103490348AFF329
:10014000008008BD0000000098060020601D010826
:1001500070B44C1E4C2C2DD8DFE804F03C3C3C3CE9
:100160002C2C2C2C27273C272727272727272727F6
:100170002727272C28282828282828283C272727ED
:1001800027272C27283E3C2C3C28283E2C2C272790
:10019000273C3C3C3C3C273C3C273C2C2C2727273D
:1001A0002C2C2C2727273C283C001AB14469856950
:1001B000AC4202DB002070BC704704EB44050669CA
:1001C000AD00013444617019F5D07155426083600F
:1001D00070BC7047002AEDD0002BEBD044698569D4
:1001E000AC42E7DAE9E700BF2DE9F047C368B2F1B6
:1001F000000A04460E461A7815BF4FF01E094FF04C
:100200001B094FF01D084FF01A0814BF1C271927AF
:100210000D4618E0562A1FD04B2A24D0442A2DD14F
:100220005A78782A27D14C21226B02331132E360AD
:100230002263002320461A46FFF78AFF2860C8B1D0
:10024000E368051D1A78722AE4D1226B0133093262
:10025000E36022633946ECE7226B01330932E36045
:1002600022634146E5E7226B01330632E3602263F5
:100270004946DEE705462846BDE8F087BAF1000F9B
:10028000F9D1462AF7D1B542F5D01D201E211C22F6
:1002900007E01B2B0BD0192B00D132700436B5426E
:1002A000E9D0366833781A2BF3D13070F6E7317025
:1002B000F4E700BF10B4C3680A461C78522C0DD076
:1002C0004F2C02D0084610BC70472021046B033429
:1002D00004630133C36010BC002339E7046B1F21A2
:1002E00002340463F5E700BF002A4DD070B505461F
:1002F0000E4614462378013B4C2B2BD8DFE803F045
:100300003636363F2A2A27273636363636363636BA
:10031000363636363636362A363636363636363689
:1003200036362F2F36362A363636362B3636363692
:100330002A27363636363636363636363636362A84
:100340002A362B2B2B2B2A36363636363600A46827
:10035000002CCFD170BD6468002CCBD1FAE7626865
:100360001378052B03D1336801333360626831465B
:100370002846FFF7B9FFA468002CBBD1EAE72B6839
:1003800001332B606268F2E7704700BF7AB32DE952
:10039000F0410D4604464FF00008D0F80011AF18A8
:1003A00009E00B46BD4201F10101C4F80011E65419
:1003B00084F8046119D0FF2915F8016BF1D1D4F844
:1003C0000831D4F80C2184F8FF8020469847012199
:1003D0000023D4F82421BD420A44C4F82421C4F8DF
:1003E0000011E65484F80461E5D1BDE8F08170475E
:1003F00070B4026811786E2918D0A1F13003092B6E
:100400001ED800260023013203EB8303026001EBB8
:1004100043041178A4F13003A1F13005092DF2D97C
:100420000EB1C4F13003184670BC7047531C036012
:100430005178A1F13002092A02D81A460126E1E7D3
:100440000023F0E74369826910B593420FDA03EBAA
:1004500043020169920001338C18436105D04123A6
:100460000C308B54FFF7C4FF6060204610BD0024A1
:10047000204610BD10B5C36804461A785F2A0DD017
:100480006E2A0FD00C30FFF7B3FF01300AD4E368B7
:100490001A785F2A06D10133E36010BD01330020D2
:1004A000E36010BD4FF0FF3010BD00BF38B5C3682A
:1004B0001A78542A01D0002038BD0133C3600446A5
:1004C000FFF7D8FF051EF6DBA26A6369A169013256
:1004D0008B42A262EFDA03EB4302216992000133FF
:1004E0008818636102D005238B54456038BD00BF76
:1004F00070B504460C30FFF77BFF061E4DDDE56846
:1005000063685B1B9E422BDCA268AB195207E36059
:1005100004D5AA5D242A04BF0133E360092E0CDD53
:1005200008221F4928460EF049F830B92B7A2E2BA5
:1005300019D05F2B17D0242B15D06369A269934281
:100540000EDA03EB430221699200013388186361DC
:1005500006D02DB100238B5445608660E06270BDEB
:100560000020E06270BD6B7A4E2BE6D1236B62698E
:10057000A16916339E1B8A422663F1DA02EB42031D
:1005800021699B000132C8186261EAD00026152556
:10059000044ACE5485604260E3E7002070BD00BF8E
:1005A000402801084C28010870B5C36804461A7831
:1005B000C66A422A0D460FD10133E3602046FFF799
:1005C00097FF2A4603464B212046FFF7C1FDE3680B
:1005D00005461A78422AEFD0E662284670BD00BF71
:1005E0002DE9F0410546C0680378532B02D0002066
:1005F000BDE8F081431CEB604278A2B1831CEB6044
:1006000042785F2A5AD100232A6A9342EFD2AA6A1B
:10061000E9690132AA6251F82300BDE8F081A2F134
:100620004103192B4FD9AB6803F00803002B14BF0B
:100630000124002401D1002969D1464B742103F122
:10064000C40003E01C338342D1D219788A42F9D125
:100650005E69002E7BD06A69A9698A4263DA02EB7F
:100660004207D5F810E0BF0001321EEB0700D3F8B7
:1006700018806A6106D04FF0180C0EF807C046606B
:10068000C0F80880E862002C4AD0DE681C692B6B39
:10069000914223442B6341DD02EB420329699B0015
:1006A0000132C8186A6103D01822CA5446608460B7
:1006B000EB681B78422B38D0BDE8F081A2F1300402
:1006C000E3B2092BABD800210DE0303B99428ED824
:1006D000E9680A78481C1AB1E8600A785F2A14D0E1
:1006E0001946A2F13004E4B201EBC103092CA2F1D6
:1006F000410002EB8303E8D919283FF678AF01EBFC
:10070000C10302EB8303373BE0E701337CE7EB688F
:100710001B78433B012B98BF01248EE70020C7E7DD
:100720005E689C68B3E70020ACE701462846FFF707
:100730003BFF00283FF45BAF2B6A6A6A9342BBDA47
:10074000E9695A1C41F823002A62BDE8F081A969D1
:100750006A6998E7181E010838B5044629B9C368C4
:100760001A7832B15A1CC2601978682919D07629D2
:1007700001D0002038BD04F10C052846FFF738FEF3
:10078000E3681A785F2AF4D10133E3602846FFF763
:100790002FFEE3681A785F2AEBD101200344E3605F
:1007A00038BD04F10C00FFF723FEF2E7D0F810315A
:1007B0009BB10A685B68002A9B6809DB23B907E0E4
:1007C00042B19B68013A1BB119782F29F8D0002358
:1007D000184670475B68184670470122C0F8182118
:1007E000F6E700BF002941D038B505460C4623780E
:1007F0004B2B27D8DFE803F02E26262626302E2B7B
:100800002B26262626262626262626262626262683
:100810002E26262626262626262626262626262E68
:10082000262626262E262626262E2B262626262653
:1008300026262626262626262E2E2626262E2E2E30
:1008400026262E2E61682846FFF7CCFF18B9A4682B
:10085000002CCCD1002038BD211D2846FFF7A6FF73
:100860000028F7D003782F2BF4D138BD0020704733
:10087000F0B5154652684B1CAC681344A34283B0D4
:100880000E46074613D8EC680CB103B0F0BD95E8EE
:1008900009003246394618440DF09FFE2B686A68FD
:1008A00033449C546B681E446E6003B0F0BDEA682C
:1008B000002AEAD11CB9022B4FF0020402D96400CD
:1008C000A342FCD8214628680DF008FF10B128602B
:1008D000AC60D8E7019028680DF03CFC0122019B38
:1008E000EA602B606B60AB60CFE700BF2DE9F041A1
:1008F00088B00A4604461B4901A80EF0CDF801A8AD
:1009000005F07CFF50B301AD4FF00008D4F80011A2
:100910002F1809E00B46BD4201F10101C4F8001196
:10092000E65484F8046119D0FF2915F8016BF1D160
:10093000D4F80831D4F80C2184F8FF802046984779
:1009400001210023D4F82421BD420A44C4F8242103
:10095000C4F80011E65484F80461E5D108B0BDE89C
:10096000F08100BF6428010800222DE9F04FC36820
:1009700083B01D7804468D42019200F0C6818846FE
:10098000DFF89C9401AE23E0662A4CD0A2F130013E
:10099000092900F21782204601F0FEFA05460028D8
:1009A00000F07081E3681B78492B00F09280676348
:1009B0002A4600232E212046FFF7CAFB306000287C
:1009C0005BD0E36800F108061A78424500F0078121
:1009D0000125676B65631A784C2A47D0542A51D099
:1009E000732AD1D15A78722A00F0E280702A00F07E
:1009F000FD80204601F010FA0546002800F04281F3
:100A00002B78312B43D0322B5CD0332B7BD1E36856
:100A10001A785F2A40F0C1800133E3604521204607
:100A2000FFF7A2FFBCE05A78702AE2D19A1CE2607C
:100A30009A78542A69D02046FFF71CFD6FF00043D6
:100A4000984260D0431C5ED001306369A269934232
:100A500059DA2269591C03EB430312EB83056161E8
:100A600051D0062102F823106860A0E7204601F06B
:100A7000E1FE05466763002D9AD10025284603B0A4
:100A8000BDE8F08F2046FFF711FD0546F2E7D5F8E7
:100A900004B0236BDBF80820DBF800A0023A134413
:100AA00023635046494605F09FFE002800F0E6808B
:100AB000DBF80C30032B26D8DFE813F02B003501D0
:100AC0003300A5006B68032B1DD8DFE803F0226616
:100AD0001C1C204600F0FEFB2A460346042120464B
:100AE000FFF736FB0546C5E7742A82D15B786C2B8D
:100AF0007FF47FAF204600F0AFFDE36805465A78EB
:100B0000002A40F069816763B7E70333E3600020A0
:100B10009BE72A46002335212046FFF719FB0546AF
:100B2000A8E7BAF1000FEED06B681B685A78632A09
:100B300000F0D2809AF80030662B00F0EF8020465B
:100B400000F070F98346B149504605F04DFE00288B
:100B500000F09D80AE49504605F046FE30B150464B
:100B6000AC4905F041FE002840F08380204601F0AA
:100B700013FAE36882461B78492B00F0E98053465C
:100B80005A4638212046FFF7E3FA2A460346372122
:100B90002046FFF7DDFA05466CE7204600F042F9F3
:100BA00003462A4636212046FFF7D2FA054661E77A
:100BB0000233E360204600F04FFD8246204601F0FC
:100BC000EBF9E36883461B78492B00F093800346DA
:100BD000294652462046FFF7BBFA05464AE7019DE3
:100BE00001332846E36003B0BDE8F08F0233E360D1
:100BF000204600F017F9002302464A212046FFF75D
:100C0000A7FA054636E7BAF1000F3FF47CAF8249F8
:100C1000504605F0E9FD00283FD09AF80030662BD9
:100C200000F0BD806E2B7FF46EAF9AF80130772B09
:100C300002D0612B7FF467AF5F212046FFF794FE5F
:100C40008246204600F008FDE36883461A78452A6C
:100C500000F0A180702A00F0A680692A7FF453AFCB
:100C60005B786C2B7FF44FAF204600F0DBF8034637
:100C70001FE0204600F0D6F8824680E7204600F0CC
:100C8000EBFC8DE72846676303B0BDE8F08F452194
:100C90002046FFF769FE824671E7204600F0C2F861
:100CA0008246204600F0BEF88346204600F0BAF89F
:100CB00003465A463B212046FFF74AFA524603466E
:100CC0003A212046FFF744FA2A46034639212046B6
:100CD000FFF73EFA0546CDE61B78A3F16302012A31
:100CE00003D9723B012B3FF625AF204600F0B4FC40
:100CF000834628E7204600F0EDFA5A4603460421D1
:100D00002046FFF725FA034662E70133C3602E2130
:100D1000134603B0BDE8F04FFFF71ABA204601F0C2
:100D20007BF883460FE7BAF1000F3FF436AF9AF82D
:100D30000030702B17D06D2B15D05046374905F079
:100D400053FD00287FF429AF204600F065FA27E71D
:100D5000204600F0BFFA5246034604212046FFF722
:100D6000F7F982460BE79AF801209A42E5D1E36849
:100D70001A785F2A23D05046284905F035FD00280F
:100D80003FD0204600F04EF803461A463821204650
:100D9000FFF7DEF904E70133E360002389E720462B
:100DA00001F03AF87CE75A78692A7FF4ACAE023356
:100DB000E36045212046FFF7D7FD034679E701337D
:100DC000E360BAE76F2A15D0692A7FF48DAE5A78AE
:100DD0006C2A7FF40EAE00250233E36045212046E5
:100DE000FFF7C2FD2A46034630212046FFF7B0F93F
:100DF00005463FE65A786E2A7FF4FBAD0233E36086
:100E0000C9E5204600F008FA0346BEE76C28010851
:100E1000702801087428010878280108682801084A
:100E2000702D0108C1680B784C2B00F08780542B83
:100E300000F08680732B2DE9F041044637D0662BF5
:100E400012D0A3F13002092A00F2B881204601F045
:100E5000A3F8054600286DD0E3681B78492B00F005
:100E600088802846BDE8F0814B78702B39D0204629
:100E700000F0D2FF054600285CD00378312B61D00A
:100E8000322B25D0332B55D1E3681A785F2A40F0F6
:100E9000B4810133E36045212046FFF765FD034639
:100EA0002A462046BDE8F0413621FFF751B94B787C
:100EB000722B69D0702BDAD10231C160FFF7B2FF1B
:100EC000002302464A212046BDE8F041FFF740B921
:100ED0004368032B2ED8DFE813F0710090012D003A
:100EE0002D008B1CC3608B78542B63D0FFF7C2FAA4
:100EF000C34333F000431DD001306369A2699342BC
:100F000018DA03EB43022169920001338D18636103
:100F1000A7D006238B546860A3E7742BA7D14B7826
:100F20006C2BA4D100F098FBE16805464B78002BB0
:100F300040F04E8100252846BDE8F08101F07ABCE2
:100F4000FFF7B4BA4768236BBA683E68023A1344A5
:100F500023633046AA4905F047FC002800F0AB8027
:100F6000FF68032FE6D8DFE817F02900FF007100C3
:100F70003100204600F0AEF92A46034604212046FF
:100F8000BDE8F041FFF7E4B80231C16000F064FB56
:100F90000546204601F000F8E36806461B78492B19
:100FA00000F0AE8003462A462046BDE8F04101210C
:100FB000FFF7CEB80331C16000209EE72A462046E5
:100FC000BDE8F04100233521FFF7C2B8002EB1D0B3
:100FD0008C49304605F008FC002871D03378662B28
:100FE00000F0B2806E2BA5D17378772B01D0612BE6
:100FF000A0D15F212046FFF7B7FC0646204600F04F
:101000002BFBE36807461A78452A00F09980702A7E
:1010100000F09E80692A8DD15B786C2B8AD12046A6
:10102000FFF700FF03463A463B212046FFF790F8C2
:10103000324603463A212046FFF78AF82A460346FD
:1010400039212046BDE8F041FFF782B8002E3FF479
:1010500071AF6B681B685A78632A44D03378662B6B
:1010600059D02046FFF7DEFE07466749304605F0B7
:10107000BBFB90B36549304605F0B6FB28B130465E
:10108000634905F0B1FB00284AD1204600F084FFF7
:10109000E36806461B78492B47D033463A46382149
:1010A0002046FFF755F82A46034637212046BDE87B
:1010B000F041FFF74DB8204600F0CEFA0346EFE6C8
:1010C0002046FFF7AFFE06462046FFF7ABFE074679
:1010D0002046FFF7A7FE0346A5E745212046FFF778
:1010E00043FC0646D9E71B78A3F16302012A02D923
:1010F000723B012BB2D8204600F0AEFA0746B4E7A7
:10110000204600F0E7F83246034604212046FFF768
:101110001FF8034647E7204600F07EFE0746A4E797
:101120002046FFF77FFE0646B7E7204600F0D2F8DC
:101130003246034604212046FFF70AF80646ACE78C
:101140000133E36000236EE7204600F065FEBAE756
:101150005A78692A7FF4EEAE0233E36045212046D7
:10116000FFF702FC03465EE7002E46D03378702B73
:1011700015D06D2B13D000273046264905F034FBDF
:10118000B8B12046FFF74EFE0346002F3FF488AE6D
:101190001A4638212046FEF7DBFF034680E67278C8
:1011A0009A42E8D1E3681A785F2AE5D10133E36017
:1011B000E1E7204600F030F80346E6E76F2B15D054
:1011C000692B7FF4AAAE4B786C2B7FF450AE0025D0
:1011D0000231E16020464521FFF7C6FB2A4603465F
:1011E00030212046BDE8F041FEF7B2BF4B786E2BB0
:1011F0007FF43DAE0231C16028E60027C1E700BFA1
:10120000702D0108782801086C2801087028010851
:1012100074280108682801082DE9F041C26882B0ED
:1012200013780446452BC76A49D00021012602AD38
:1012300045F8041D493B0F2B3AD8DFE803F035355C
:10124000391A39393939393939393939390801329D
:10125000D4F83480E26020466663FFF7E3FDE3687C
:10126000C4F834801A78452A26D0002002B0BDE8A0
:10127000F081204601F0DEFA0028F6D00246002375
:101280002F212046FEF764FF286000F108050028A2
:10129000EBD0E2681378452BCCD101980132E260A3
:1012A000E76202B0BDE8F081204600F013F8E3E702
:1012B000204600F0D1F9DFE70133E360DCE70023EB
:1012C0000132C2602F211A4602B0BDE8F041FEF79C
:1012D0003FBF00BFC2681378493B012B02D80132DF
:1012E000C26099E7002070472DE9F043C26885B0DD
:1012F000137805464E3B0C2B70D8DFE803F01E6FC9
:101300006F6F6F5B6F176F6F6F6F07000132002198
:10131000C26000F0B1FFEB6806461978452900F07D
:1013200099800022104605B0BDE8F08300F034FE3D
:101330000246104605B0BDE8F0830132C26003A941
:101340000122FEF751FF81460028EAD000212846FD
:10135000FEF7B0FF00278046EA68BC4E1478002CE8
:1013600000F0EF80442C00F0D180A4F13003DBB218
:101370001C2B40F2A880A4F16103192B40F2A88035
:10138000552C00F0E580532C00F0CC80492C00F067
:10139000E180542C00F01C81452C00F042814D2C42
:1013A00040F0CF80002F00F0CC80531CEB605478CD
:1013B0001A46D4E75378742B31D00021FFF710F987
:1013C000EB68024619784929B3D10133EB6028460E
:1013D0000192FFF721FF019A034617E000F0DCFDC0
:1013E000EB68024619784929A3D1002A99D0296AC5
:1013F000686A814295DAEC69481C44F82120286229
:1014000019784939012988BF0023DED928460421EB
:10141000FEF79EFE0246104605B0BDE8F083436924
:10142000816902328B42C260C0F2A8800024284643
:1014300000F0B2FD2246034601212846FEF788FE51
:10144000296BEB68033129631978024649297FF437
:1014500070AFCAE75A1CEA605978732900F0A0807F
:10146000642900F0B9802846FFF73EFF04460028B3
:1014700079D00378452B00F09180472B00F08E80C7
:10148000EB681A785F2A40F089804FF0FF372846D2
:10149000013340F80C3FFEF7ABFF0028FFF641AFE9
:1014A0007B1C7BD06B69AA6993425CDA03EB430235
:1014B0002969013392006B618B1855D046208854FE
:1014C0009F605C6050E026FA03F3D9077FF553AFC5
:1014D000284600F061FD7FB3012103463A462846C5
:1014E000FEF736FE0746532C23D0EA681478452CC5
:1014F0003FF43BAF2FB32B6A696A8B4221DAE9696B
:10150000581C41F823702862147828E7537828463D
:1015100003F0DF03542B11D000F03EFD002FDBD190
:101520000746E2E701212846FFF75AF8002FD3D1FA
:101530000746EA68147812E70746D4E700F08CF80B
:10154000ECE700221046C9F8002005B0BDE8F083A2
:101550002846E1E7002FF4D00132EA602846FFF781
:101560005BFE0421B9E70023324628460221FEF73C
:10157000EFFD0246104605B0BDE8F08303EB4302E1
:101580000169920001338C1843613FF450AF00268B
:1015900003202F4B8E54A060636048E72346E3E7A7
:1015A0009A1CEA609A785F2A32D06B69AA699342E2
:1015B000D9DA03EB43022969013392006B618B187E
:1015C000D2D000270E2423488F549C605860CBE76C
:1015D0002846FEF76BFFA1E70233EB602846FEF7D3
:1015E00049FF071EFFF69DAE2846FFF77DFE044625
:1015F00000283FF457AF0378452B3FF453AF472BF8
:101600003FF450AFEB681A785F2A7FF44BAF3EE7A8
:101610002846033340F80C3FFEF7EAFE0028C4DA00
:101620007FE6C9F80070002F3FF47BAEB8F1000FE1
:1016300004D0039BCDF80C80C8F804301378452BF8
:101640007FF46FAE0132EA60039A72E6FF0308107E
:101650008C2801087C2801082DE9F043C26883B07A
:1016600013780446722B58D0562B56D04B2B54D09F
:10167000442B00F09F80A3F130014A2900F28A80B8
:10168000DFE811F02A012A012A012A012A012A0190
:101690002A012A012A012A0188008800880088007E
:1016A0008800880088000B028800520188008800AA
:1016B0004C016001880088008800880088006E0165
:1016C0002A018601C30188009401A201D101F3011E
:1016D00088008800880088002A0188008800880027
:1016E0008800880088000C010C010C010C010C0121
:1016F0000C010C010C010C010C0188000C010C0107
:101700000C010C018800880088000C010C013E01CE
:101710000C010C010C010C010C01002201A9204656
:10172000FEF762FD0546002834D0E36820461B78AA
:10173000462B34D0FFF790FF286058B303781F3B47
:10174000012B30D9019A2AB3236A616A8B4221DACC
:10175000E069591C40F82320019D2162284603B00E
:10176000BDE8F0830123456B4363FFF75BFB6563D3
:101770000246002342212046FEF7EAFC054601907E
:1017800040B1E3681A782AB15A1CE2601B78452BF5
:1017900000F0AA800025284603B0BDE8F08300F0E1
:1017A0004BFD2860C9E7019A436842602A680192AC
:1017B0002B60C7E75378782BAFD0531CC3605378A6
:1017C000002BE7D0931CC3605378463B302BE1D805
:1017D00001A151F823F000BFB11C000895170008C3
:1017E0009517000895170008951700089517000829
:1017F0009517000895170008951700089517000819
:101800009517000895170008951700089517000808
:101810006517000895170008951700089517000828
:1018200095170008951700089517000895170008E8
:1018300095170008951700089517000895170008D8
:1018400095170008871C0008951700085D1C000804
:101850003F1C0008171C0008EB1B00089517000828
:10186000BF1B00089D1B000895170008951700086E
:101870009517000895170008651B000895170008C4
:101880004F1B00089517000895170008231B000838
:101890006517000895170008ED1A00086069A5692A
:1018A000613BBB4903EB8303A84201EB830380F256
:1018B000318200EB400126698900013075186061B2
:1018C00000F02882272070546B605968236B013226
:1018D0000B44E26023635EE72046FFF705FD054603
:1018E0000190002D3FF456AF236A626A9342BFF61F
:1018F00051AFE1695A1C41F82350019D22624AE729
:101900000132E2602046FEF7F3FD00230246282163
:101910002046FEF71DFC05460190E2E7204600F058
:101920008BFC05460190DCE70132E2602046FFF7C0
:1019300093FE0023024625212046FEF709FC0546BA
:101940000190CEE70132E2602046FFF785FE0023DA
:10195000024626212046FEF7FBFB05460190C0E724
:101960000132E2602046FFF777FE0546002800F0CE
:10197000BB802046FFF770FE002800F0B5800346CC
:101980002A462B212046FEF7E3FB05460195A8E7F2
:101990000132E2602046FFF75FFE00230246242169
:1019A0002046FEF7D5FB054601909AE70132E2603A
:1019B0002046FFF751FE0023024623212046FEF772
:1019C000C7FB054601908CE75378A3F13002092A42
:1019D00005D95F2B03D0413B192B00F2BA810021BE
:1019E0002046FEF7FDFDE36801901B780546492B74
:1019F0007FF4D1AE2046FFF76DFC2A460346042152
:101A00002046FEF7A5FB0546C0E70132E26020460E
:101A1000FFF722FE0023024622212046FEF798FB14
:101A2000054601905DE72046FEF740FDE66801901F
:101A300033780546492B7FF454AFA36B002B40F05D
:101A4000A08100283FF4A6AE236A626A9342BFF6E3
:101A5000A1AEE1695A1C41F8230022622046019D93
:101A6000FFF738FC2A460346C9E70132E260204608
:101A7000FEF73EFDE36801901B780546492B00F018
:101A800075812046FFF7E8FD019B02462121204693
:101A9000FEF75EFB0546019023E7511CE160537899
:101AA0005F2B00F03B81303B092B00F245810B4658
:101AB0000133E3601A78303A092AF9D96269A069DA
:101AC000824211DA02EB42002669800001323518A9
:101AD000626109D05A1A07D0002737546960AA609A
:101AE0001A785F2A00F0878100254FE793785F2BF3
:101AF00000F07781FEF7A6FC0546002D3FF446AFC7
:101B0000E3681A785F2AEFD10133E3602046FFF7DC
:101B1000A3FD2A4603462D212046FEF719FB054664
:101B200034E7426983699A4280F2F4800C2303FB14
:101B300002F301690132CD18426100F0EB802720E9
:101B4000144AC8546A60236B0833236323E6FFF703
:101B500083FD002302464A212046FEF7F9FA054696
:101B60000190BEE6426983699A4280F2D3800C23D9
:101B700003FB02F301690132CD18426100F0CA8013
:101B80002720054AC8546A60236B1133236302E699
:101B9000DC1E0108342101085C21010842698369C7
:101BA0009A4280F2B7800C2303FB02F301690132F1
:101BB000CD18426100F0AE802720904AC1E742690B
:101BC00083699A4280F2A6800C2303FB02F3016929
:101BD0000132CD18426100F09D802720884AC85408
:101BE0006A60236B04332363D5E5426983699A42B3
:101BF00080F290800C2303FB02F301690132CD18BF
:101C0000426100F0878027207E4AC8546A60236BB7
:101C100009332363BFE5426983699A427ADA0C2368
:101C200003FB02F301690132CD18426172D0272013
:101C3000754AC8546A60236B0A332363ABE5426973
:101C400083699A4266DA0C2303FB02F301690132CD
:101C5000CD1842615ED027206C4AD6E7426983697D
:101C60009A42BFF697AD0C2303FB02F301690132E0
:101C7000CD1842613FF48FAD00240E20644ACC544D
:101C8000A8606A6087E5426983699A42BFF682ADBF
:101C90000C2303FB02F301690132CD1842613FF4CA
:101CA0007AAD002404205B4ACC54A8606A6072E5D7
:101CB000436981698B427ADA2C26006903EB430180
:101CC0008900013345186361019546549378303B90
:101CD000DBB2092B94BF012300232B817BD9204643
:101CE000FFF7BAFC019B68605B68002B3FF452ADC4
:101CF00004F10C00FEF77CFBE268137813B1531C6F
:101D0000E3601378A3F17303B3FA83F3019D5B09D6
:101D10006B8140E5002301935B68FFDE0025013104
:101D2000E1602046FFF798FC2A4603462A21204618
:101D3000FEF70EFA054629E60123656B204663632C
:101D4000FFF770F86563054600283FF4CDAEE36801
:101D5000C6E62046FFF7C8FA0546019000283FF482
:101D600019AD0378182B7FF4BFAD14E52046FFF7BB
:101D7000B1FA2A46034604212046FEF7E9F901900C
:101D80007FE62046D4F81490D4F82080A76A256B0B
:101D9000FFF7A0FAE2681278492A0BD02563E660C3
:101DA000C4F81490C4F82080A762019D99E500232F
:101DB0001B70FFDE019B002B3FF4ECAC226A616AD2
:101DC0008A42BFF6E7ACE569511C45F82230019A1A
:101DD0000346216213E604F10C00FEF709FB019DA6
:101DE0007DE701230332466BC2604363FFF71AF8B5
:101DF0006663054681E6194691E700BF4821010860
:101E000020210108E42001080C210108F820010824
:101E10009828010890280108F8B5C36884461F78FF
:101E200027B35A1CC2605A781F78002A58D09A1CCF
:101E3000C260762F044693F801E043D0632F16D199
:101E4000BEF1760F13D1436B856BB3FA83F35B0955
:101E50008363FFF701FCA36B0246002B52D00023E3
:101E600034212046FEF774F9A563F8BDBE46432031
:101E70000022274D04E08CBF18465A1C82422DD008
:101E8000831A03EBD37302EB630319016C582944E3
:101E90002678BE42EFD164787445ECD1DCF814307A
:101EA000DCF81820934219DA03EB4302DCF8104007
:101EB00092000133A018CCF8143013D03123A3546E
:101EC0004160F8BDAEF13005EBB2092BCFD8FEF77B
:101ED0000FFB6369A2690146934204DB0020F8BD51
:101EE0009646C4E7F8BD03EB43022669920001332E
:101EF000B0186361F2D00029F0D03223B3544560AA
:101F00008160F8BD33212046FEF722F9ACE700BF1F
:101F100070210108002330B5C26883B001931378A3
:101F200043B3452B26D02E2B24D0044601AD16E01A
:101F30004F2B16D02046FFF78FFBD8B10246002367
:101F40002E212046FEF704F9286098B1E26800F1DE
:101F50000805137843B1452B06D02E2B04D0522B05
:101F6000E6D15378452BE5D1019818B1836823B1A8
:101F700003B030BD002003B030BD4268117827297E
:101F8000F6D15268117C0929F2D15168226B521A9C
:101F900022634360ECE700BFF8B5C16804460B78E4
:101FA000A3F13002092A20D9A3F16102192A25D907
:101FB000A3F14302012A2CD94C2B00F08880552B29
:101FC00033D14B786C2B33D0742B2ED14B1CC36088
:101FD0004B78742B5AD0422B4FF000050CD1294678
:101FE0002046BDE8F840FEF7DFBAFEF781FA054665
:101FF000E3681B78422BF2D02846F8BDFFF70CFFB0
:10200000054618B10378312B00F0B280E3681B78E5
:10201000F0E7C56A25B12A78002A6CD0182A6AD060
:10202000432B00F0BF80442B6FD000252846F8BD1D
:102030004B1CC3604B786C2BCDD10231C160FFF7D4
:1020400069FF0646F0B1E2681378452BC3D101322F
:10205000E2602046FEF70EFA002813DB6369A269EE
:1020600093420FDA03EB43022169920001338D188A
:102070006361CBD045238B546E60A860236A626A8B
:1020800093421CDBE36800251B78B3E70231C16093
:10209000FEF7F0F90028F5DB6369A2699342F1DAF3
:1020A00003EB43022169920001338D186361ADD0C7
:1020B00047238B546860236A626A9342E2DAE069DC
:1020C000591CE26840F823502162137892E70131ED
:1020D000C160FEF70DFA05460028A6D0E268137825
:1020E0005F2B87D12046013240F80C2FFEF780F994
:1020F00000288BDA99E7236BAA68134423630B78D3
:10210000432B4FD0442B7FF466AF4B78303B052BED
:102110008BD801A252F823F06D210008312100086C
:10212000692100082B2000086521000861210008B2
:1021300002276369A269881C9342E06056DA03EBC8
:1021400043022069920001338618636105D0002D97
:102150004FD0082383543771B5608B78354649E7F3
:102160000527E6E70427E4E70327E2E70127E0E79E
:102170004268236B916807330B4410681E49236340
:1021800004F032FB00287FF441AF2046FEF7B0F99F
:102190002A46034636212046FDF7DAFFE368054666
:1021A0001B7827E74B78313B042B3FF63EAFDFE847
:1021B00003F015031B19170002276369A269881C25
:1021C0009342E06012DA03EB43022069920001338C
:1021D00086186361C1D065B10723BBE70127ECE72F
:1021E0000527EAE70427E8E70327E6E78B780025D9
:1021F00000E78B78FEE600BFA828010870B5C36829
:1022000004461A784A2A0DD071B90D462046FFF7C8
:1022100081FE78B103462A462046BDE87040292158
:10222000FDF796BF0133C3602046FFF715FA054658
:102230000028EBD1002070BDC3681A78462A01D06F
:102240000020704710B55A1CC2605A780121592AE3
:1022500004BF0233C3600446FFF7D0FF01462046A7
:10226000FEF728F8E3681A78452A01D0002010BD4F
:102270000133E36010BD00BF2DE9F047C368054698
:102280001A78472A1FD0542A1DD00E46FFF72CF883
:10229000044610B32EB3AB68DB0722D42378A3F136
:1022A0001C02042A40D94C2B3ED0022B16D1A36825
:1022B0001A78A2F11C01042940F283824C2A00F012
:1022C0008082A3600AE0296B01F114022A631A7864
:1022D000542A2BD0472A00F09F8000242046BDE8D6
:1022E000F087EB681B78002BF8D0452BF6D0214601
:1022F0000A78202A00F213811C2A80F01281042A15
:1023000040F001814A686AB11378082B03F1FF316C
:1023100000F2F680072B80F0F680012902D892683F
:10232000002AF1D10121EFE06468B7E75A1CEA60A6
:102330005A78002AD1D09A1CEA605B78433B332B51
:10234000CBD801A252F823F083270008DB22000833
:10235000DB2200086D270008DB2200085727000851
:10236000412700082B270008DB220008DB22000899
:10237000DB220008DB220008DB220008DB22000849
:10238000DB220008DB22000815270008FB260008D6
:10239000DB220008E1260008CB260008DB2200082B
:1023A000DB220008DB220008DB220008DB22000819
:1023B000DB220008DB220008DB220008DB22000809
:1023C000DB220008DB22000897260008DB22000839
:1023D000DB220008DB220008DB220008712600084F
:1023E000DB220008DB220008DB220008DB220008D9
:1023F000DB220008DB220008DB220008DB220008C9
:10240000DB220008DB220008DB220008DB220008B8
:10241000DB2200084B2600085A1CEA605A78002A82
:102420003FF45BAF9A1CEA605A78413A312A3FF692
:1024300054AF01A151F822F02D250008DB2200083D
:10244000DB220008DB220008DB220008DB22000878
:10245000DB220008DB220008DB220008DB22000868
:10246000DB220008DB220008DB220008DB22000858
:10247000DB220008DB220008DB2200082D260008F2
:10248000DB22000801260008DB220008EB250008FB
:10249000DB220008DB220008DB220008DB22000828
:1024A000DB220008DB220008DB220008DB22000818
:1024B000DB220008DB220008DB220008DB22000808
:1024C000DB220008DB220008DB220008DB220008F8
:1024D000DB220008DB220008DB220008DB220008E8
:1024E000DB220008DB220008DB220008DB220008D8
:1024F000DB220008DB220008DB220008452500085B
:10250000342B7FF40FAF00212846FFF777FE2246D9
:10251000034603212846BDE8F047FDF719BE4C2AC3
:10252000F1D1496800297FF4E3AEEDE700212846A8
:10253000FFF7A2FE0023024617212846BDE8F04718
:10254000FDF706BE05F10C00FDF752FF01287FF7ED
:10255000C4AEEB681A78002A3FF4BFAE5F1CEF6090
:102560001B785F2B7FF4B9AE00224FF040099046F4
:10257000461E3B78002B3FF4B0AE242B00F02881A0
:102580003C46002104E014F8013F23B1242B02D083
:102590000131B142F7DB6C69A869844280F2138192
:1025A0002869631C04EB44046B6110EB840300F0A6
:1025B0000A8100F824805F609960EF68761A0F4402
:1025C000EF60002A00F021813F212846FDF7C0FD81
:1025D000024600283FF481AE002ECADC2846BDE842
:1025E000F04700233E21FDF7B3BD2846FEF77CFEF1
:1025F0000023024613212846BDE8F047FDF7A8BD99
:102600009A7800212846002A00F00181DA1CEA604D
:102610009B786E2B40F0FB80FFF72EFE00230246D6
:1026200049212846BDE8F047FDF792BD2846FEF750
:102630005BFE04462846FDF705FF224603461621A9
:102640002846BDE8F047FDF783BD76212846FEF712
:1026500083F800283FF441AE00212846FFF70CFE26
:102660000023024610212846BDE8F047FDF770BD63
:1026700068212846FEF770F800283FF42EAE0021AE
:102680002846FFF7F9FD002302460F212846BDE842
:10269000F047FDF75DBD00212846FEF75DF80028F4
:1026A0003FF41BAE00212846FEF756F800283FF401
:1026B00014AE00212846FFF7DFFD0023024611215A
:1026C0002846BDE8F047FDF743BD2846FEF70CFE5F
:1026D0000023024615212846BDE8F047FDF738BD26
:1026E0000F3129632846FEF7B7FF00230246092170
:1026F0002846BDE8F047FDF72BBD0A31296328467F
:10270000FEF7AAFF002302460A212846BDE8F0474B
:10271000FDF71EBD2846FEF79FFF002302460D2150
:102720002846BDE8F047FDF713BD2846FEF794FFA5
:102730000023024612212846BDE8F047FDF708BDF8
:102740002846FEF789FF002302460C212846BDE8F3
:10275000F047FDF7FDBC2846FEF7C6FD0023024604
:1027600014212846BDE8F047FDF7F2BC2846FEF7E5
:1027700073FF002302460E212846BDE8F047FDF70F
:10278000E7BC2846FEF768FF044605F10C00FDF79C
:102790002FFE0028FFF6A1ADEB681A785F2A7FF4C0
:1027A0009CAD0133EB602846FEF756FF2B6B0246CB
:1027B000591D296323462846BDE8F0470B21FDF744
:1027C000C7BC5B6874E5EB6800240B44EB6085E5EF
:1027D0007B78532B27D05F2B23D0242B7FF47DAD28
:1027E00018466969AB6999421FDA2C694F1C01EBE5
:1027F000410114EB81036F6117D004F821905860F8
:10280000EF68023E0237EF60DBE61A46E4E6FFF7C8
:1028100033FD0023024648212846BDE8F047FDF776
:1028200097BC2E20DDE72F20DBE7EB680024023386
:10283000EB6053E5F8B5C26813784C2B01D000204B
:10284000F8BD531CC360517805465F293AD05A2918
:102850003FD0FEF701FF0028F1D00378272B46D0A8
:10286000EE6833786E2B4BD03C21452B4ED0002B9D
:10287000E5D0334601E0002CE1D00133EB601C7859
:10288000452CF8D19C1B6B69AA6993422DDA03EBA6
:1028900043022F69013392006B61BB1825D026B328
:1028A0001CB34FF0000E07F802E05E609C60024629
:1028B0002846FDF74DFCEB681A78452ABFD1013355
:1028C000EB60F8BD931CC36092785A2A18BF0020B1
:1028D00007D10133EB6000212846FFF7CDFCEB6800
:1028E0001A78452AEBD00020F8BD0023DFE74368C3
:1028F0001A7C002AB4D05A682B6B9B1A2B63AFE763
:10290000721CEA6073783D211646AEE70024BAE7F0
:102910002DE9F04F044695B0002A00F0DB80D0F896
:102920001871002F40F0C2801378884615464D2B51
:1029300001F2EA81DFE813F059043B043B04A403ED
:10294000A4048804E9048E037C03300356030A03BD
:10295000E4029802BE0272024C02F0012602CA0191
:10296000A40158017E0132010B01F200F200F200D5
:10297000D400D400D400D400D400D400D400D806AD
:10298000D806D400D400AC06FF069606200704073C
:102990008C0704077B057B0532060806E205E8097B
:1029A000AF05910656064E0084045009E308E3087B
:1029B000B208B2088C0848053A05E8081405C209AF
:1029C00018099C09E809CF076608F5071B081204D7
:1029D000D4005205AB681B78382B7BD16A685368EA
:1029E0001B685978632902F0508105F108034146BC
:1029F000204603F0C9FB0646002857D16B681A78B9
:102A0000312A02F071835B68C749186803F0ECFE55
:102A1000AB6820B95A681178032902F0AB835A6871
:102A20004146204603F04CFB6F68C0497B68D3F8F1
:102A30000090484603F0D8FE0646002842F0758212
:102A4000D4F80011FF2902F050845B234A1CC4F81B
:102A50000021635484F80431AB6841469A682046EB
:102A600002F000FDD4F80011FF2902F02B845D2351
:102A70004A1CC4F80021635484F804316B681A7846
:102A8000312A13D15B689A68012A0FD15B681B78E1
:102A90003E2B0BD1D4F80011FF2902F088842923A2
:102AA0004A1CC4F80021635484F8043115B0BDE811
:102AB000F08FD4F82031002BC1F2A884002B02F053
:102AC00038848068013B10B102782F2AF6D00FB10C
:102AD000C4F810610123C4F8183115B0BDE8F08FB7
:102AE000D4F814C1002114ABD4F8102143F840CD20
:102AF0000595C4F81431069107926A68414620464C
:102B000002F0B0FC069B002B01F08D83049BC4F8FF
:102B10001431002FCAD0C4F81061C7E7D0F814C12F
:102B2000BCF1000FDED0624605E08B4201F0BC86AE
:102B30001268002AD6D090680028F9D15168097827
:102B4000A1F1190EBEF1020FEFD90746CAE7AF682F
:102B50006D68002FAAD04FF00008D0F800112F4464
:102B600008E00B460131BD42C4F80011E65484F878
:102B700004619BD0FF2915F8016BF2D1D4F808311C
:102B8000D4F80C2184F8FF80204698470121D4F81E
:102B9000242100230A44C4F82421E4E7644E4FF0C2
:102BA0000009D0F8001106F1110A09E00B460131C5
:102BB0005645C4F80011E75484F8047101F09A8274
:102BC000FF2916F8017FF1D1D4F80831D4F80C218F
:102BD00084F8FF90204698470121D4F8242100234F
:102BE0000A44C4F82421E3E7524E4FF00009D0F81C
:102BF000001106F1190A09E00B4601315645C4F8E7
:102C00000011E75484F8047101F0AC82FF2916F832
:102C1000017FF1D1D4F80831D4F80C2184F8FF9069
:102C2000204698470121D4F8242100230A44C4F8FF
:102C30002421E3E7404E4FF00009D0F8001106F1DF
:102C4000150A09E00B4601315645C4F80011E75456
:102C500084F8047101F05582FF2916F8017FF1D143
:102C6000D4F80831D4F80C2184F8FF902046984716
:102C70000121D4F8242100230A44C4F82421E3E7E5
:102C80002E4E4FF00009D0F8001106F1160A09E0A7
:102C90000B4601315645C4F80011E75484F804711D
:102CA00001F06782FF2916F8017FF1D1D4F80831CD
:102CB000D4F80C2184F8FF90204698470121D4F8DD
:102CC000242100230A44C4F82421E3E71C4E4FF0DA
:102CD0000009D0F8001106F1130A09E00B46013192
:102CE000B245C4F80011E75484F8047101F07C8007
:102CF000FF2916F8017FF1D1D4F80831D4F80C215E
:102D000084F8FF90204698470121D4F8242100231D
:102D10000A44C4F82421E3E70A4E4FF00009D0F832
:102D2000001106F11A0A19E06C280108682A010846
:102D3000F7290108C3290108DF290108AB29010887
:102D4000972901086B2901080B4601315645C4F843
:102D50000011E75484F8047101F05480FF2916F83B
:102D6000017FF1D1D4F80831D4F80C2184F8FF9018
:102D7000204698470121D4F8242100230A44C4F8AE
:102D80002421E3E7B54E4FF00009D0F8001106F119
:102D90000F0A09E00B4601315645C4F80011E7540B
:102DA00084F8047101F02780FF2916F8017FF1D122
:102DB000D4F80831D4F80C2184F8FF9020469847C5
:102DC0000121D4F8242100230A44C4F82421E3E794
:102DD000A34E4FF00009D0F8001106F1110A09E0E6
:102DE0000B4601315645C4F80011E75484F80471CC
:102DF00001F00F80FF2916F8017FF1D1D4F80831D6
:102E0000D4F80C2184F8FF90204698470121D4F88B
:102E1000242100230A44C4F82421E3E7914E4FF013
:102E20000009D0F8001106F1150A09E00B4601313E
:102E30005645C4F80011E75484F8047100F0B887CF
:102E4000FF2916F8017FF1D1D4F80831D4F80C210C
:102E500084F8FF90204698470121D4F824210023CC
:102E60000A44C4F82421E3E77F4E4FF00009D0F86C
:102E7000001106F1120A09E00B460131B245C4F80F
:102E80000011E75484F8047100F0A087FF2916F8B8
:102E9000017FF1D1D4F80831D4F80C2184F8FF90E7
:102EA000204698470121D4F8242100230A44C4F87D
:102EB0002421E3E76D4E4FF00009D0F8001106F130
:102EC000100A09E00B4601315645C4F80011E754D9
:102ED00084F8047100F07387FF2916F8017FF1D19F
:102EE000D4F80831D4F80C2184F8FF902046984794
:102EF0000121D4F8242100230A44C4F82421E3E763
:102F00005B4E4FF00009D0F8001106F10D0A09E000
:102F10000B4601315645C4F80011E75484F804719A
:102F200000F05B87FF2916F8017BF1D1D4F8083156
:102F3000D4F80C2184F8FF90204698470121D4F85A
:102F4000242100230A44C4F82421E3E7494E4FF02A
:102F50000009D0F8001106F1180A09E00B4601310A
:102F6000B245C4F80011E75484F8047100F0E88613
:102F7000FF2916F8017FF1D1D4F80831D4F80C21DB
:102F800084F8FF90204698470121D4F8242100239B
:102F90000A44C4F82421E3E7374E4FF00009D0F883
:102FA000001106F10B0A09E00B460131B245C4F8E5
:102FB0000011E75484F8047100F0CF87FF2916F858
:102FC000017BF1D1D4F80831D4F80C2184F8FF90BA
:102FD000204698470121D4F8242100230A44C4F84C
:102FE0002421E3E7254E4FF00009D0F8001106F147
:102FF000080A09E00B460131B245C4F80011E75454
:1030000084F8047100F0CD86FF2916F8017FF1D114
:10301000D4F80831D4F80C2184F8FF902046984762
:103020000121D4F8242100230A44C4F82421E3E731
:10303000D0F80011FF2901F080844A1C7E23C4F8D7
:103040000021635484F804314146AA68204602F006
:1030500009FA2BE5AA6802F005FA27E58729010895
:1030600057290108532901082B2901083F29010884
:103070001C290108F7280108E0280108EB280108AD
:103080000022D0F81431C0F814216E680093002E8D
:1030900000F051860DF11009174696464B46D0F8C0
:1030A00010C131781A60A1F11C02042A5E60C3F8D5
:1030B00008E0C3F80CC007F10107184640F22F865C
:1030C0004C2900F02C860429C4F8143101F0C28781
:1030D00002291AD1D6F808B09BF80030462B02F02E
:1030E0003C802B4609EB071E01965D467646A246BC
:1030F0009B462B78A3F11C02042A41F262804C2BE0
:1031000001F05F8054465D46019EAA684146204614
:1031100002F0A8F93378042B02F02780202509EB70
:10312000071959F8086C013F86B9D4F80011FF2936
:1031300002F04A804B1CC4F8003159F80C2C65543D
:103140002046414684F8045102F09CF9A9F1100987
:10315000002FE6D1009BC4F81431A7E4D24E6A6870
:1031600002F080F94FF00009D4F8001106F1050AC9
:1031700009E00B460131B245C4F80011E75484F868
:10318000047100F0D786FF2916F8017BF1D1D4F83D
:103190000831D4F80C2184F8FF902046984701218B
:1031A000D4F8242100230A44C4F82421E3E76A6800
:1031B00002F058F918F0040901F0AF82D4F80011B8
:1031C000FF2901F0A1854A1C2E23C4F80021635475
:1031D00084F80431AD682B78462B01F0D1832A4660
:1031E0004146204602F03EF960E411F0040841F047
:1031F0009080AF686D68002F3FF458ACD0F8001194
:103200002F4409E00B460131BD42C4F80011E654D9
:1032100084F804613FF44AACFF2915F8016BF1D141
:10322000D4F80831D4F80C2184F8FF802046984760
:103230000121D4F8242100230A44C4F82421E3E71F
:103240000123C0F8183131E4D0F81C31002B41F0D3
:103250000A81291DFDF7AAFA00283FF43BAC037848
:103260002F2B01F00184D4F8105102462B684146FF
:10327000C4F81031204602F0F5F8C4F8105115E4F6
:103280000023D0F81491D0F84471C0F81431C0F87C
:10329000445111F0040F6E6805D033781BB9B26841
:1032A000062A01F0438532464146204602F0DAF80C
:1032B00094F804313C2B01F07982D4F80031FF2BD3
:1032C00001F09084591C3C22C4F80011E25484F8A7
:1032D00004214146AA68204602F0C4F894F804315B
:1032E0003E2B01F03E82D4F80031FF2B01F06784C1
:1032F000591C3E22C4F80011E25484F80421C4F899
:103300001491C4F84471FFF7D1BBD5F80490B9F11A
:10331000000F01F08580654D4FF00008D0F80011D6
:10332000AF1D09E00B460131AF42C4F80011E6546D
:1033300084F8046100F08687FF2915F8016BF1D14C
:10334000D4F80831D4F80C2184F8FF80204698473F
:103350000121D4F8242100230A44C4F82421E3E7FE
:10336000534E4FF00009D0F8001106F10A0A09E0A7
:103370000B4601315645C4F80011E75484F8047136
:1033800000F00587FF2916F8017BF1D1D4F8083148
:10339000D4F80C2184F8FF90204698470121D4F8F6
:1033A000242100230A44C4F82421E3E7D0F80011C3
:1033B0002D79FF2901F0AF824B1CC4F80031655410
:1033C00084F80451FFF772BB6A6802F04BF8AA68F0
:1033D0004146204602F046F8FFF768BB354E6A6862
:1033E00002F040F84FF00009D4F8001106F1080A85
:1033F00009E00B4601315645C4F80011E75484F842
:10340000047100F00D85FF2916F8017FF1D1D4F881
:103410000831D4F80C2184F8FF9020469847012108
:10342000D4F8242100230A44C4F82421E3E76A687D
:103430000AB102F017F8AB68002B3FF437ABD4F8B1
:103440000061FD2E01F2C0811B4F07F1020B0AE063
:10345000B24601365F45C4F8006104F80A9084F86A
:10346000049100F0C986FF2E17F8019BF0D14FF0B0
:1034700000033146012684F8FF30D4F80C21D4F83B
:10348000083120469847D4F824314FF0000A3344DD
:10349000C4F82431DEE7094E4FF00009D0F80011DE
:1034A00006F1090A16E000BFAC280108BC2A010891
:1034B000A42A0108232B0108402A01084F2A0108E9
:1034C0000B4601315645C4F80011E75484F80471E5
:1034D00000F09685FF2916F8017FF1D1D4F8083164
:1034E000D4F80C2184F8FF90204698470121D4F8A5
:1034F000242100230A44C4F82421E3E7D24E4FF0EC
:103500000009D0F8001106F1090A09E00B46013163
:103510005645C4F80011E75484F8047100F0998509
:10352000FF2916F8017FF1D1D4F80831D4F80C2125
:1035300084F8FF90204698470121D4F824210023E5
:103540000A44C4F82421E3E7D5F804A0BF4D4FF0A6
:103550000008DAF80870D0F8001105F1080909E050
:103560000B460131A945C4F80011E65484F8046102
:1035700000F00885FF2915F8016FF1D1D4F8083162
:10358000D4F80C2184F8FF80204698470121D4F814
:10359000242100230A44C4F82421E3E76A68AE68C2
:1035A0000AB101F05FFFD4F80031FF2B01F0B582C2
:1035B0005A1C7B25C4F800214146E554324620467A
:1035C00084F8045101F04EFFD4F80011FF2901F0F6
:1035D000E9814A1C7D23C4F80021635484F8043136
:1035E000FFF764BAD5F80490AE6899F80030312B33
:1035F00000F0CC87332B41F0D786D0F80011FF299B
:1036000001F0C78428234A1CC4F80021635484F8BD
:103610000431D9F80430D4F8285104A91A46C4F862
:1036200028112046414604930595FFF771F9D4F817
:103630000011059BFF29C4F8283101F09984292342
:103640004A1CC4F80021635484F8043132464146D0
:10365000204602F035FDFFF729BA6A6802F0F2FC55
:10366000FFF724BA11F0200F40F053876A681AB1AF
:1036700018F0400601F0D18128F0600805F1080239
:103680004146D4F81431204602F0E8FBFFF70EBAA9
:1036900011F004086B6840F0138693E8A000002F37
:1036A0003FF404AAD0F800112F4409E00B46013181
:1036B000BD42C4F80011E65484F804613FF4F6A951
:1036C000FF2915F8016BF1D1D4F80831D4F80C2199
:1036D00084F8FF80204698470121D4F82421002354
:1036E0000A44C4F82421E3E76968D0F81C710B7818
:1036F000002F40F0E285052B01F0C881232B00F05C
:103700008A862A789A4200F08686242B7FF4E8A9DC
:1037100000234A68D4F8141114A840F8401DD4F8C6
:1037200010110595C4F8140106930791002A7FF43F
:10373000E5A9FFF7E2B96A6801F094FEFFF7B6B9B0
:103740000027D0F8142114AB43F8402DC0F81431F1
:10375000D0F81061AA6805950697079601F082FED9
:10376000069B23B92A464146204601F08BFE049B66
:10377000C4F81431FFF79AB9D0F814A100225146C9
:103780000DF15009D0F8103149F840ADCDF800A046
:10379000C0F81491059506920793002901F0A383C0
:1037A0004B681B78193B022B01F29D83AC46012725
:1037B0000E464D4604E073681B78193B022B1CD85B
:1037C000B3684FEA071AABB9032F01F2FD8096E800
:1037D0000F000DF1500E0EEB0A0BABF1400E8EE810
:1037E0000F0001234BF8405C09EB0A05C4F81451A3
:1037F0000137B3603668002EDDD1DCF80820414681
:103800002046654601F02EFE009A069BC4F814215E
:10381000002B7FF44BA9012F0CD009EB071959F8A5
:103820000C2C013F4146204601F02CFE012FA9F14E
:103830001009F4D12A1D4146D4F81431204602F073
:1038400031FAFFF733B900BF4F2A0108432A0108B4
:10385000B5F90A30002B40F073866A68D54B516881
:10386000994200F069864146204601F0FBFDD4F8FC
:103870000031FF2B01F0B482591C2022C4F8001142
:10388000E25484F80421B5F90830002B00F0958546
:10389000C94D4FF00008AF1D09E00B460131BD4294
:1038A000C4F80011E65484F804613FF4FFA8FF292E
:1038B00015F8016BF1D1D4F80831D4F80C2184F853
:1038C000FF80204698470121D4F8242100230A4490
:1038D000C4F82421E3E7B94E4FF00008D0F80011F6
:1038E00006F10E0909E00B460131B145C4F800119B
:1038F000E75484F8047100F0B383FF2916F8017FC0
:10390000F1D1D4F80831D4F80C2184F8FF80204696
:1039100098470121D4F8242100230A44C4F8242123
:10392000E3E7A74E4FF00009D0F8001106F11A0A9C
:1039300009E00B4601315645C4F80011E75484F8FC
:10394000047100F0F082FF2916F8017FF1D1D4F85C
:103950000831D4F80C2184F8FF90204698470121C3
:10396000D4F8242100230A44C4F82421E3E7696839
:10397000FCF738FF4FF00009002801F05F8303785F
:103980002F2B40F057844368002B00F0538480684D
:1039900009F101090028F2D16B6800934FF0000A89
:1039A00009F1FF330193C4F82071009A4146204683
:1039B00001F058FD019BBB4240F3AB81814DD4F82F
:1039C000001105F1020B09E00B460131AB45C4F8CB
:1039D0000011E65484F8046100F09B81FF2915F87A
:1039E000016BF1D1D4F80831D4F80C2184F8FFA090
:1039F000204698470121D4F8242100230A44C4F822
:103A00002421E3E7704E4FF00009D0F8001106F1D1
:103A1000160A09E00B460131B245C4F80011E7541B
:103A200084F8047100F05F83FF2916F8017FF1D15B
:103A3000D4F80831D4F80C2184F8FF902046984738
:103A40000121D4F8242100230A44C4F82421E3E707
:103A50005E4E4FF00009D0F8001106F10E0A09E0A1
:103A60000B4601315645C4F80011E75484F804713F
:103A700000F0A083FF2916F8017FF1D1D4F80831B6
:103A8000D4F80C2184F8FF90204698470121D4F8FF
:103A9000242100230A44C4F82421E3E76A6811784A
:103AA000272900F015860026D4F80011FF2901F01F
:103AB000C78028234A1CC4F80021635484F80431C9
:103AC0006A684146204601F0CDFCD4F80031FF2B56
:103AD00001F09B802922591CC4F80011E25484F89B
:103AE00004212B783D2B00F0E686082E00F07F861F
:103AF000AA684146204601F0B5FCFEF7D7BF012376
:103B0000C0F81831FEF7D2BF6A6804A830490AF03D
:103B1000C3FF04A802F072FE00283EF4C7AF04AD54
:103B20004FF00008D4F800112F1809E00B460131BE
:103B3000BD42C4F80011E65484F804613EF4B6AF07
:103B4000FF2915F8016BF1D1D4F80831D4F80C2114
:103B500084F8FF80204698470121D4F824210023CF
:103B60000A44C4F82421E3E71A4E4FF00009D0F8C4
:103B7000001106F11C0A09E00B4601315645C4F854
:103B80000011E75484F8047100F0FA82FF2916F856
:103B9000017FF1D1D4F80831D4F80C2184F8FF90DA
:103BA000204698470121D4F8242100230A44C4F870
:103BB0002421E3E77C1F0108302A0108132B0108A8
:103BC0000B2A0108402A01080F2A0108932A01083C
:103BD00064280108E32A0108AB681A783A2A7EF4BF
:103BE00079AF9B681B783B2B7EF474AF05F108031B
:103BF0006A6802F0C9FA064600287EF457AFD5F885
:103C000004A0AA68DAF8041093680868D649D2F8C4
:103C100004905F689D6802F0E7FD002801F0E482EF
:103C20000422D2492046FCF7B1FBD9F8043083B115
:103C300041464A46204602F043FAD4F80011FF29D3
:103C400001F0EE8320234A1CC4F80021635484F859
:103C500004313A464146204601F004FC002D3EF472
:103C600025AF2A464146204602F02AFAFEF71EBF3B
:103C7000BF4E4FF00009D0F8001106F1080A09E024
:103C80000B4601315645C4F80011E75484F804711D
:103C900000F0D980FF2916F8017FF1D1D4F808315E
:103CA000D4F80C2184F8FF90204698470121D4F8DD
:103CB000242100230A44C4F82421E3E7AD4E4FF049
:103CC0000009D0F8001106F11D0A09E00B46013188
:103CD000B245C4F80011E75484F8047100F0FC8187
:103CE000FF2916F8017FF1D1D4F80831D4F80C215E
:103CF00084F8FF90204698470121D4F8242100231E
:103D00000A44C4F82421E3E70123C0F81831FEF780
:103D1000CDBE01374F457FF446AEFEF7C7BE76688D
:103D2000002E01F07080042F03F1100302467FF48F
:103D3000B8A9C4F814010123C4F81831FEF7B6BEBF
:103D40008D4E41466A68204601F08CFB4FF0000919
:103D5000D4F8001106F1040A08E00B460131B2451F
:103D6000C4F80011E75484F8047113D0FF2916F841
:103D7000017BF2D1D4F80831D4F80C2184F8FF90FB
:103D8000204698470121D4F8242100230A44C4F88E
:103D90002421E4E7AA684146204601F063FBFEF7D0
:103DA00085BE6A684146204601F05CFBFEF77EBE98
:103DB0006A684146204601F055FBFEF777BE6A6807
:103DC0004146204601F04EFBFEF770BE6A68414650
:103DD000204601F047FBFEF769BE6A68414620466F
:103DE00001F040FBFEF762BE6A684146204601F0E2
:103DF00039FBFEF75BBE6A684146204601F032FBA4
:103E0000FEF754BE6A684146204601F02BFBFEF7E0
:103E10004DBE6A684146204601F024FBFEF746BECF
:103E20004146AA68204601F01DFBD4F80011FF2985
:103E300000F05F854A1C5D23C4F80021635484F8B8
:103E40000431FEF733BED4F81C3141460133C4F8C7
:103E50001C316A68204601F005FBD4F81C31474E3E
:103E6000013B4FF00009D4F80011C4F81C3106F1F1
:103E7000020808E00B4601314645C4F80011E7543A
:103E800084F8047113D0FF2916F8017BF2D1D4F81D
:103E90000831D4F80C2184F8FF902046984701217E
:103EA000D4F8242100230A44C4F82421E4E7AA68B2
:103EB00004A8013232490AF0EFFD04A802F09EFC8A
:103EC00018B304AD4FF00008D4F800112F1808E023
:103ED0000B460131AF42C4F80011E65484F8046186
:103EE00015D0FF2915F8016BF2D1D4F80831D4F8B8
:103EF0000C2184F8FF80204698470121D4F8242122
:103F000000230A44C4F82421E4E7D4F80011FF296F
:103F100000F05F854A1C7D23C4F80021635484F8B7
:103F20000431FEF7C3BD6A684146204601F09AFAA3
:103F3000FEF7BCBD4146AA68204601F093FAD4F8CA
:103F40000011FF2900F00A854A1C5D23C4F80021F6
:103F5000635484F80431FEF7A9BD6A6841462046DF
:103F600001F080FAFEF7A2BD78280108702A010846
:103F7000032B0108C32A010814290108102B01088A
:103F800064280108DAF804502B78613B192B09D812
:103F9000FF2900F0958720234A1CC4F800216354B0
:103FA00084F80431EB1913F8013C202B08BF07F10A
:103FB000FF37002F3EF47AAD4FF00008D4F800111F
:103FC0002F4409E00B460131AF42C4F80011E6541A
:103FD00084F804613EF46AADFF2915F8016BF1D154
:103FE000D4F80831D4F80C2184F8FF802046984793
:103FF0000121D4F8242100230A44C4F82421E3E752
:10400000D4F844213AB1D4F8101114AB43F8481D48
:104010000392C4F810316B681A78042A00F00D83FB
:10402000D4F8285104A81A46C4F82801414620466D
:1040300004930595FEF76CFC059AD4F84431C4F856
:104040002821002B3EF432AD029BC4F81031FEF75C
:104050002DBDAA684146204601F004FAFEF726BDB0
:104060006A6804A80132D7490AF016FD04A802F0D4
:10407000C5FB18B304AD4FF00008D4F800112F1899
:1040800008E00B460131BD42C4F80011E65484F843
:10409000046115D0FF2915F8016BF2D1D4F808316D
:1040A000D4F80C2184F8FF80204698470121D4F8E9
:1040B000242100230A44C4F82421E4E7D4F80011A1
:1040C000FF2900F004844A1C7D23C4F800216354B6
:1040D00084F80431FEF7EABC6A684146204601F0E4
:1040E000C1F9FEF7E3BC6A684146204601F0BAF91F
:1040F000FEF7DCBC6A684146204601F0B3F9FEF7E2
:10410000D5BCB14E4146AA68204601F0ABF94FF04C
:104110000009D4F8001106F1050A08E00B46013148
:104120005645C4F80011E75484F8047113D0FF29F0
:1041300016F8017BF2D1D4F80831D4F80C2184F8B8
:10414000FF90204698470121D4F8242100230A44F7
:10415000C4F82421E4E76A684146204601F082F968
:10416000FEF7A4BC6A684146204601F07BF9FEF7E1
:104170009DBC6A684146204601F074F9FEF796BC82
:104180006A684146204601F06DF9FEF78FBC414652
:104190006A68204601F066F9D4F80011FF2900F0A2
:1041A0002A844A1C2923C4F80021635484F804316A
:1041B000FEF77CBC6A684146204601F053F9FEF7E1
:1041C00075BC042F06F1100EA6F1100400F0248730
:1041D00094E80F0086E80F000023CAF814614EF837
:1041E000104C4EF81C5C4EF8183C4EF814CC764639
:1041F0006D680137FEF77DBFAA6841462046D4F8B6
:10420000245101F02FF9D4F824319D427EF44EACB4
:10421000D4F80031B3427EF449AC0AF1FF33C4F85C
:104220000031FEF743BC2A464146204601F02AF9F8
:10423000FEF76CBC6B680093B9F1000F7FF4AEAB76
:10424000FEF734BC4A4604A85E490AF025FC04A8DF
:1042500002F0D4FA18B304AD4FF00008D4F80011FE
:104260002F1808E00B460131AF42C4F80011E654A4
:1042700084F8046115D0FF2915F8016BF2D1D4F848
:104280000831D4F80C2184F8FF802046984701219A
:10429000D4F8242100230A44C4F82421E4E7D4F804
:1042A0000011FF2900F0DF844A1C7D23C4F800219F
:1042B000635484F80431FEF7F9BB0027FFF71EBAF8
:1042C000DF689D68002F3EF4F1AB4FF00008D0F896
:1042D00000112F4409E00B460131BD42C4F8001122
:1042E000E65484F804613EF4E1ABFF2915F8016B54
:1042F000F1D1D4F80831D4F80C2184F8FF8020469D
:1043000098470121D4F8242100230A44C4F8242129
:10431000E3E76E68AF683744BE42BEF4C7AB4FF008
:1043200000080DE0D4F80011FF2936D04B1CC4F86A
:104330000031655484F804510136B7427EF6B6ABBD
:10434000BB1B032B3578EDDD5F2DEBD173785F2B35
:10435000E8D1B378552BE5D1F31C9F42E2D9002078
:1043600006E0A5F137029F4202EB001000F0C9857C
:10437000994613F8015BA5F13002D1B20929A5F1E4
:10438000410EF0D9BEF1050FA5F16102E9D9052A68
:1043900000F24587A5F15702E5E7D4F80831D4F8D3
:1043A0000C2184F8FF80204698470123D4F824216B
:1043B00000211A44C4F82421B9E7044D9846AF1DE2
:1043C00010E000BF64280108D8290108382A010834
:1043D0000B460131BD42C4F80011E65484F8046173
:1043E0003EF464ABFF2915F8016BF1D1D4F8083124
:1043F000D4F80C2184F8FF80204698470121D4F896
:10440000242100230A44C4F82421E3E72B782F2B2E
:104410007EF466AB01460D46D4F814C1FEF762BBCC
:10442000D74DD0F800112F1D09E00B460131AF42E6
:10443000C4F80011E65484F804613EF437ABFF2958
:1044400015F8016BF1D1D4F80831D4F80C2184F8B7
:10445000FF90204698470121D4F8242100230A44E4
:10446000C4F82421E3E7C74E4FF00008D0F800114C
:1044700006F1050908E00B460131B145C4F8001109
:10448000E75484F8047113D0FF2916F8017BF2D1A8
:10449000D4F80831D4F80C2184F8FF8020469847DE
:1044A0000121D4F8242100230A44C4F82421E4E79C
:1044B0006A6804A80132B4490AF0EEFA04A802F0CE
:1044C0009DF900283EF4F2AA04AD4FF00008D4F89C
:1044D00000112F1809E00B460131AF42C4F800115A
:1044E000E65484F804613EF4E1AAFF2915F8016B53
:1044F000F1D1D4F80831D4F80C2184F8FF8020469B
:1045000098470121D4F8242100230A44C4F8242127
:10451000E3E721F0600805F108024146D0F81431C4
:1045200001F09CFC6A68002A3EF4C0AA414620467D
:1045300000F098FFFEF7BABAD4F80011FFF7A3B95C
:10454000924E4FF00009D0F8001106F1050A09E07B
:104550000B460131B245C4F80011E75484F80471E8
:104560003FF47BA9FF2916F8017BF1D1D4F808317B
:10457000D4F80C2184F8FF90204698470121D4F804
:10458000242100230A44C4F82421E3E7D9F80430A5
:104590007F491F68384602F027F996F800A018B93D
:1045A000BAF1030F00F01E85BAF1380F00F0008653
:1045B0007849384602F018F90546002800F036819F
:1045C0007549384602F010F9002800F0B9824A46D1
:1045D0004146204601F036FD002F3FF437A86F49D1
:1045E000384602F001F9002800F0878338466C490C
:1045F00002F0FAF8054600287FF428A8D4F8003124
:10460000FF2B00F0DE842825581CC4F80001414629
:10461000E5543246204684F8045100F023FFD4F8D4
:104620000011FF2900F0708429234A1CC4F80021DE
:10463000635484F80431FEF739BA58680DF1100953
:10464000D4F8283102460490C4F828914146204607
:104650000593FEF75DF9059AD4F84431C4F8282192
:1046600013B1029BC4F8103194F804313C2B00F0D4
:10467000DB83D4F80011FF2900F069843C234A1C35
:10468000C4F80021635484F804316B68D4F82851CD
:104690009B6841461A46C4F8289120460493059524
:1046A000FEF736F994F80431059A3E2BC4F8282118
:1046B00000F0AD83D4F80011FF2900F09C843E2364
:1046C0004A1CC4F80021635484F80431FEF7EEB9A3
:1046D0005268167C002E3FF4E7A9062E40F239837B
:1046E000072E7FF4E1A9AA68117800297FF4DCA9DC
:1046F000916801297FF4D8A93C2B7FF4D5A9536890
:104700001B78302B00F02886312B7FF4CDA90422B2
:104710002449FBF73BFEFEF7C9B9234ED4F800113C
:1047200006F1020A09E00B460131B245C4F8001156
:10473000E75484F804713EF44DADFF2916F8017B6F
:10474000F1D1D4F80831D4F80C2184F8FF90204638
:1047500098470121D4F8242100230A44C4F82421D5
:10476000E3E7D4F80011FF2900F0E68420224B1C77
:10477000C4F80031625484F80421FEF7B6BD00BFCE
:10478000B42A0108D828010864280108282A010849
:104790005C2A0108302B010868280108602A0108FA
:1047A000702D01088C2A0108B4280108D4F80011E2
:1047B000FF2900F0678420224B1CC4F800316254AA
:1047C00084F80421FEF77BBD0027A7553146D4F8B5
:1047D0000831D4F80C2120469847D4F824313E46BD
:1047E0000133C4F80071C4F82431FEF72DBED4F8AB
:1047F0000011FF2900F067845B234A1CC4F80021E4
:10480000635484F804314146AA68204600F02AFE29
:10481000D4F80011FF2900F014835D234A1CC4F86A
:104820000021635484F80431FEF740B93146204634
:10483000FBF7D8FF28B907E043682BB18068013542
:1048400010B103782F2BF7D02A4604A8D5490AF0D7
:1048500023F904A801F0D2FF00283EF427A904ADF3
:104860004FF00008D4F800112F1809E00B46013171
:10487000BD42C4F80011E65484F804613EF416A960
:10488000FF2915F8016BF1D1D4F80831D4F80C21C7
:1048900084F8FF80204698470121D4F82421002382
:1048A0000A44C4F82421E3E76A684146204600F040
:1048B000D9FDFEF7FBB8FF2900F0D4832D234A1C55
:1048C000C4F80021635484F80431FFF70EB90025C1
:1048D000D4F80831D4F80C2184F8FF5020469847CA
:1048E0000122D4F8243129461344C4F82431FFF7B7
:1048F000EBBB0025D4F80831D4F80C2184F8FF5024
:10490000204698470122D4F8243129461344C4F89C
:104910002431FFF790BA0026D0F8083180F8FF6004
:10492000D0F80C219847D4F8243131460133C4F82B
:104930000061C4F82431FEF73FBD0026D0F80831ED
:10494000D0F80C2180F8FF6098470122D4F8243178
:1049500031461344C4F82431FEF770BB0025D4F867
:104960000831D4F80C2184F8FF50204698470122E2
:10497000D4F8243129461344C4F82431FFF7E5BAAA
:104980000D2289492046FBF701FDA9682046013127
:10499000FBF7ACFF032285492046FBF7F7FC6D6867
:1049A000FEF71DBC0025D4F80831D4F80C2184F89A
:1049B000FF50204698470122D4F824312946134459
:1049C000C4F82431FEF706BE0123C4F81831FEF7FF
:1049D0006DB80025D4F80831D4F80C2184F8FF50C4
:1049E000204698470122D4F8243129461344C4F8BC
:1049F0002431FFF790BA0025D4F80831D4F80C21FF
:104A000084F8FF50204698470122D4F824312946E3
:104A10001344C4F82431FFF7C5BBD4F8143114A9EA
:104A200041F8403D28F06008D4F81031C4F8141162
:104A30002046414606960793059500F013FD049B1A
:104A4000069EC4F81431002E7EF430A8D4F800116C
:104A5000FF2900F00B8420234A1CC4F80021635472
:104A600084F80431FEF70ABED4F82031002BFEF69C
:104A7000FAAB002B00F09F828068013B00283EF4D7
:104A800029A802782F2AF4D0FEF724B8D0F830E114
:104A9000D0F82C21BEF1000F14DD1368994200F00C
:104AA000F7833B4602F10800A44607E052F8334082
:104AB0008146A14200F1080000F0D38101339E45F8
:104AC000F4D16446D4F834319E4580F2BB840EF1B3
:104AD000010302EBCE09C4F8303142F83E10D4F89D
:104AE00010E109F104097246002A00F08E84D4F81E
:104AF0003C01D4F8403100F1010E984280F2A284CA
:104B0000D4F83831C4F83CE103EBC0035068586076
:104B1000C9F8003012689946E6E700251946D4F82E
:104B20000C21D4F8083184F8FF5020469847012220
:104B3000D4F824112B461144C4F82411FEF739BDD2
:104B4000002E00F04D84BAF12F0F40F08884736876
:104B500073B3074607E00137B66856B333782F2B97
:104B600027D173682BB31A784A2AF4D159682046A2
:104B7000FBF738FE98B103782F2B40F06C84436824
:104B8000002B00F064840346002004E01A782F2AEA
:104B900005D15A681AB19B680130002BF6D1074441
:104BA000DAE700BF64280108B8280108C82801080E
:104BB0001F4639462046FBF799FEFDF777BF0025D3
:104BC0001946D4F80C21D4F8083184F8FF50204657
:104BD00098470121D4F824212B460A44C4F8242103
:104BE000FEF787BB00261946D4F80C21D4F808310B
:104BF00084F8FF60204698470121D4F824213346E9
:104C00000A44C4F82421FEF75EBB0022194684F84A
:104C1000FF20D4F80831D4F80C21204698472923E6
:104C20000121237084F804312A78D4F824313D2AF4
:104C30000B44C4F82431C4F800117EF456AF3DE6AD
:104C40000027D4F8083184F8FF70D4F80C212046EE
:104C50009847D4F8243139460133C4F80071C4F8B8
:104C60002431FEF726BF0025D4F80831D4F80C21F2
:104C700084F8FF50204698470122D4F82431294671
:104C80001344C4F82431FFF710BB1B78A3F1630170
:104C9000012903D9723B012B3DF6A7AE41462046C0
:104CA00001F0D0F9D4F80011FF2900F071823C2303
:104CB0004A1CC4F80021635484F80431AB684146AF
:104CC0005A68204600F0CEFB0222D5492046FBF769
:104CD0005DFBAB6841469A68204600F0C3FBD4F800
:104CE0000011FF2900F0DF8129234A1CC4F80021AC
:104CF000635484F80431FDF7D9BE3246414620465C
:104D000000F0B0FBFDF7D2BE0026D4F80831D4F88D
:104D10000C2184F8FF60204698470122D4F8243102
:104D200031461344C4F82431FEF74EBABD497068C9
:104D30000AF00AF900287EF4B6AAAA68414620467D
:104D400000F090FB0222B8492046FBF71FFBFEF75C
:104D5000D6BAAA681778002F7EF4A6AE3D2B00F0D5
:104D6000EF82AA6841462046023E00F07BFB042EFB
:104D70003DF69CAEDFE806F02618110A0300204637
:104D80000322AA49FBF702FBFDF790BE2046022250
:104D9000A749FBF7FBFAFDF789BE20460222A54989
:104DA000FBF7F4FAFDF782BED4F80011FF2900F0FA
:104DB0001A836C234A1CC4F80021635484F804311C
:104DC000FDF774BED4F80011FF2900F0DB827523D3
:104DD0004A1CC4F80021635484F80431FDF766BE10
:104DE00000261946D4F80C21D4F8083184F8FF6065
:104DF000204698470121D4F8242133460A44C4F8B8
:104E00002421FEF73ABDC4F81431FEF794BFD4F85C
:104E10000011FF2900F0448220234A1CC4F800211D
:104E2000635484F8043145E4D4F80011FF2900F0FC
:104E30006E8220234A1CC4F80021635484F8043194
:104E400017E40025D4F8083184F8FF50D4F80C2179
:104E500020469847D4F8243129460133C4F8243138
:104E6000DBE46446D4F82801D8B1026891420AD044
:104E7000034604E05B68A3B11A68914203D09542EF
:104E8000F8D19842F6D004312046FBF78FFC002879
:104E90003DF420AE03782F2B3DF40BAE0146FEF718
:104EA0002DBCD9F80430D4F8106104312046C4F880
:104EB0001031FBF77BFC00283DF40AAE0127E9E73F
:104EC0000025D4F8083184F8FF50D4F80C2120468E
:104ED0009847D4F8243129460133DAF80450C4F84D
:104EE0002431FFF758B8AA684146204600F0BAFAC4
:104EF000009A069BC4F81421002B3EF49BACFDF7EE
:104F0000D5BD5F25FFF70EBA0025D4F8083184F827
:104F1000FF50D4F80C2120469847D4F82431294674
:104F20000133C4F82431FFF77FBB4846424901F002
:104F30005BFC20B13A464146204601F083F8AB685D
:104F400041469A68204601F0BBF8FDF797BD002660
:104F5000D4F8083184F8FF60D4F80C212046984733
:104F6000D4F8243131460133C4F82431FFF786BB2D
:104F70000025D4F8083184F8FF50D4F80C212046DD
:104F80009847D4F8243129460133C4F82431FEF778
:104F900056BB0025D0F8083180F8FF50D0F80C211E
:104FA0009847D4F8243129460133C4F80051C4F895
:104FB0002431FEF727BB406800283DF48BADFEF797
:104FC00052B984F8FF001946D4F80C21D4F80831FE
:104FD00020469847D4F824212B460132C4F82421D6
:104FE000FFF711BB73681A78012A00F0538196F815
:104FF00000A0FFF7DDBA0025D4F8083184F8FF508F
:10500000D4F80C2120469847D4F82431294601339E
:10501000C4F82431FFF753BB5446FEF78CBE00BFE3
:10502000642A0108CC280108D4280108802A010834
:105030007C2A0108782A01086C2801086A68414620
:10504000204601F03DF820460322E249FBF79EF995
:10505000FDF72CBD14AB43F848CD0396C4F81031CE
:10506000FEF753B80027D4F8083184F8FF70D4F85D
:105070000C2120469847D4F8243139460133C4F82E
:1050800024311BE40026D4F8083184F8FF60D4F8FA
:105090000C2120469847D4F8243131460133C4F816
:1050A0002431FFF788BB0025D4F8083184F8FF507D
:1050B000D4F80C2120469847D4F8243129460133EE
:1050C000C4F8243110E60026D4F8083184F8FF60D3
:1050D000D4F80C2120469847D4F8243131460133C6
:1050E000C4F82431FFF788BB5A68916801297DF420
:1050F0008AAC526812783E2A7DF485ACD4F800114F
:10510000FF290FD1D4F8083184F8FF60D4F80C21BE
:10511000204698473146D4F82431C4F80061013361
:10512000C4F8243128234A1CC4F80021635484F8AD
:1051300004316B68FDF767BC0025D4F8083184F8AA
:10514000FF50D4F80C2120469847D4F82431294642
:105150000133C4F82431FFF709BBDBF804B0BBF11D
:10516000000F3EF4E8ADFDF7BCBF029BC4F8103160
:10517000FDF7D4BF936841461B782046292B1CBFFE
:105180000123C4F81831526800F09AFFFDF74CBCB7
:105190000026D4F8083184F8FF60D4F80C212046AA
:1051A0009847D4F8243131460133C4F824317EE5E0
:1051B00072684146204600F083FF4A464146204639
:1051C00000F040FFFDF772BCD4F8083184F8FF60AE
:1051D000D4F80C2120469847D4F8243131460133C5
:1051E000C4F82431FDF7A6BF4A464146204600F0E8
:1051F00067FF52464146204600F024FF3A464146AA
:10520000204600F05DFF204603227349FBF7BEF8FD
:105210002A464146204600F053FFFDF747BC4F4564
:105220007FF66FAE5F2D7FF46CAEFF283FF67AA855
:10523000D4F80011C5B2FF290FD1D4F8083184F891
:10524000FF80D4F80C21204698470021D4F824315F
:10525000C4F800810133C4F824314B1CC4F8003178
:105260004E46655484F80451FFF766B8D4F8083107
:1052700084F8FF60D4F80C2120469847D4F82431F4
:1052800031460133C4F80061C4F82431FFF7E3BBB1
:105290009146E7E5B2681278292A08BF1E46A6E6BD
:1052A0000025D4F8083184F8FF50D4F80C212046AA
:1052B0009847D4F8243129460133C4F80051C4F882
:1052C0002431A9E50026D4F8083184F8FF60D4F829
:1052D0000C2120469847D4F8243131460133C4F8D4
:1052E0000061C4F82431FDF7C2BB84F8FF00D4F894
:1052F0000831D4F80C2120469847D4F8243131469F
:105300000133C4F80061C4F82431FDF79EBB0026C8
:10531000D4F8083184F8FF60D4F80C21204698476F
:10532000D4F8243131460133C4F80061C4F8243183
:105330007FE5416800293DF4CAAB0B78FEF7DEB982
:10534000D0F80011FF290DD02D234A1CC4F80021EC
:10535000635484F8043104E505222049FBF716F86C
:10536000FDF7A4BBD0F8083180F8FF70D0F80C210D
:105370009847D4F8243139460133C4F80071C4F891
:105380002431E1E70025D4F8083184F8FF50D4F83F
:105390000C2120469847D4F8243129460133C4F81B
:1053A0000051C4F8243112E50027FFF710B9002599
:1053B000D4F8083184F8FF50D4F80C2120469847DF
:1053C000D4F8243129460133C4F80051C4F82431FB
:1053D000FDF765BBB02A01086C2A0108842A010880
:1053E0003746FFF7E6BB0025D4F8083184F8FF50B4
:1053F000D4F80C2120469847D4F8243129460133AB
:10540000C4F80051C4F82431D3E4C9F800200431B1
:105410002046FBF7CBF900287FF43CADFDF75ABBE3
:10542000D4F8083184F8FF60D4F80C21204698475E
:10543000D4F8243131460133C4F80061C4F8243172
:10544000FEF700BC0123C4F81831FDF72FBB184646
:105450000744FFF781BB00200744FFF77DBB0746E9
:10546000FFF7A7BB10B5D0F8283182B0C0F828D11B
:1054700004468DE80C00FDF74BFA019BC4F8283177
:1054800002B010BD2DE9F047137882B0033B1546FA
:1054900004468846492B00F22982DFE813F0E9012F
:1054A00027022702270227022702270227022702B4
:1054B00027022702270227022702270227022702A4
:1054C00027022702270227022702EE018401AA01F0
:1054D000EE018401AA01CF01DC016F008D009D0067
:1054E000AC00D000F50027022702270227021A018C
:1054F00027025E012702270227022702270227022E
:105500002702270227022702270227022702270253
:105510002702270227022702270227022702270243
:105520002702270227022702270227022702270233
:105530004A00D64D4FF00008D0F8001105F11107D0
:1055400008E00B460131BD42C4F80011E65484F86E
:1055500004612ED0FF2915F8016FF2D1D4F808317B
:10556000D4F80C2184F8FF80204698470121D4F814
:10557000242100230A44C4F82421E4E7D0F80011D0
:10558000FF2900F0FE814A1C2023C4F80021635447
:1055900084F80431AB6841461A46D4F82851C4F85F
:1055A00028D120468DE82800FDF7B2F9019BC4F808
:1055B000283102B0BDE8F08711F00405F9D1D0F828
:1055C0000031FF2B00F022822A22591CC4F800115E
:1055D000E25484F80421ECE7D0F80011FF2900F030
:1055E000BF814A1C2623C4F80021635484F8043187
:1055F00002B0BDE8F087D0F80011A54D4FF00008CB
:10560000AF1C08E00B460131BD42C4F80011E6545E
:1056100084F80461CDD0FF2915F8016BF2D1D4F8DC
:105620000831D4F80C2184F8FF80204698470121E6
:10563000D4F8242100230A44C4F82421E4E7954D3A
:105640004FF00008D0F8001105F1080708E00B46FC
:105650000131BD42C4F80011E65484F80461A8D0B9
:10566000FF2915F8016FF2D1D4F80831D4F80C21D4
:1056700084F8FF80204698470121D4F82421002394
:105680000A44C4F82421E4E7834D4FF00008D0F821
:10569000001105F10A0708E00B460131BD42C4F8CC
:1056A0000011E65484F8046183D0FF2915F8016BDA
:1056B000F2D1D4F80831D4F80C2184F8FF802046C8
:1056C00098470121D4F8242100230A44C4F8242156
:1056D000E4E790F80431282B0BD0D0F80031FF2BF1
:1056E00000F02C812022591CC4F80011E25484F8E7
:1056F00004216B68D4F8285141461A46C4F828D1D1
:1057000020468DE82800FDF703F9644D019B002732
:10571000D4F80011C4F8283105F1030809E00B465C
:1057200001314545C4F80011E65484F804613FF4A2
:1057300040AFFF2915F8016BF1D1D4F80831D4F846
:105740000C2184F8FF70204698470121D4F82421C9
:1057500000230A44C4F82421E3E7514E4FF0000926
:10576000D0F8001106F10A0A09E00B46013156454E
:10577000C4F80011E75484F8047100F0C480FF29D4
:1057800016F8017BF1D1D4F80831D4F80C2184F853
:10579000FF90204698470121D4F8242100230A4491
:1057A000C4F82421E3E73F4D4FF00008D0F8001182
:1057B00005F1090709E00B460131BD42C4F80011AB
:1057C000E65484F804613FF4F4AEFF2915F8016F44
:1057D000F1D1D4F80831D4F80C2184F8FF802046A8
:1057E00098470121D4F8242100230A44C4F8242135
:1057F000E3E72D4D4FF00008D0F80011AF1D09E090
:105800000B460131BD42C4F80011E65484F804612E
:105810003FF4CFAEFF2915F8016BF1D1D4F8083170
:10582000D4F80C2184F8FF80204698470121D4F851
:10583000242100230A44C4F82421E3E7D0F80031EE
:10584000FF2B00F0D1802022591CC4F80011E25433
:1058500084F80421C2E6D0F80031FF2B00F0B280BA
:105860002022591CC4F80011E25484F80421C4E633
:105870006B68D0F828511A4691E60C4D4FF000089D
:10588000D0F8001105F109071CE000BF532B0108F7
:10589000682B01086B2B0108782B0108842B010869
:1058A000882B01083F2B01084C2B0108332B0108E2
:1058B0000B460131AF42C4F80011E65484F804618C
:1058C0003FF477AEFF2915F8016FF1D1D4F8083114
:1058D000D4F80C2184F8FF80204698470121D4F8A1
:1058E000242100230A44C4F82421E3E7D0F8283116
:1058F0002A46C0F828D101930095FDF709F8019BCD
:10590000C4F8283155E66B68D4F828511A46414648
:10591000C4F828D120468DE82800FCF7F9FFD4F818
:105920000011019BFF29C4F828313AD04A1C2923D1
:10593000C4F80021635484F804313AE6002619467D
:10594000D0F80C21D0F8083180F8FF609847D4F8DF
:10595000242133460132C4F80061C4F82421C1E691
:105960000025D4F80831D4F80C2184F8FF502046E3
:1059700098470122D4F8243129461344C4F824312D
:1059800030E60026D0F80831D0F80C2180F8FF600E
:1059900098470122D4F8243131461344C4F8243105
:1059A000F2E50025D4F80831D4F80C2184F8FF5032
:1059B000204698470122D4F8243129461344C4F8DC
:1059C0002431B4E700251946D0F80C21D0F808316D
:1059D00080F8FF509847D4F824212B460132C4F8B0
:1059E0000051C4F824213BE700251946D0F80C21CA
:1059F000D0F8083180F8FF509847D4F824212B467E
:105A00000132C4F80051C4F824211CE71946D0F82B
:105A10000C21D0F8083180F8FF509847D4F82421A1
:105A20002B460132C4F80051C4F82421CCE500BF54
:105A3000002A00F0A1802DE9F04F1E46D0F8183161
:105A400089B0054643BB0F4614464FF0010802E0FB
:105A5000D5F8183103BBA368DBB9626813782EB997
:105A6000A3F11C01042914D94C2B12D0E168292B75
:105A7000C4F80880D5F81091C5F810110FD02A2B62
:105A800018D0022B21D039462846FFF7FBFCC5F879
:105A900010912468002CDBD109B0BDE8F08F236899
:105AA00008323946284600F0D9F9C5F8109109B0F6
:105AB000BDE8F08F236804323946284600F0F2F83A
:105AC000C5F8109109B0BDE8F08F0026D5F8148113
:105AD000C5F81461526839462846FFF7C3FC17F031
